:020000040800F2
:10000000C8FC0020DD010008A1590008E7470008EE
:100010009D590008E5310008817E000800000000BD
:100020000000000000000000000000004501000882
:10003000413B00080000000089010008617C0008C5
:10004000F7010008F7010008F7010008F7010008B0
:10005000F7010008F7010008F7010008F7010008A0
:10006000F7010008F5400008F7010008F701000853
:10007000F7010008F7010008F7010008F701000880
:10008000F7010008F7010008F7010008F701000870
:10009000F7010008F7010008F7010008F701000860
:1000A000F7010008F7010008F7010008F701000850
:1000B000F7010008F7010008F7010008F701000840
:1000C000F7010008F7010008F7010008F701000830
:1000D000F7010008F7010008F7010008F701000820
:1000E000F7010008F7010008F7010008F701000810
:1000F000F7010008F7010008F7010008F701000800
:10010000F70100086D6F0008F7010008F70100080B
:10011000F7010008F7010008F7010008F7010008DF
:10012000F7010008F7010008F7010008F7010008CF
:10013000DFF80CD000F0FEFC0048004721BA0008B0
:10014000C8FC0020224B19680868B0E8F00F80F363
:100150000988BFF36F8F4FF0000080F311884EF0D5
:100160000D0E70470000000006480068006880F32C
:10017000088862B661B6BFF34F8FBFF36F8F00DFA1
:1001800000BF00BF08ED00E0EFF30980BFF36F8F01
:100190000F4B1A6820E9F00F106008B54FF005000A
:1001A00080F31188BFF34F8FBFF36F8F0CF048FAC5
:1001B0004FF0000080F31188BDE808401968086816
:1001C000B0E8F00F80F30988BFF36F8F704700BF6E
:1001D00068010020EFF30580704700000648804763
:1001E00006480047FEE7FEE7FEE7FEE7FEE7FEE71C
:1001F000FEE7FEE7FEE7FEE7757C00083101000838
:1002000040EA01039B0703D009E008C9121F08C098
:10021000042AFAD203E011F8013B00F8013B521E18
:10022000F9D27047D2B201E000F8012B491EFBD28F
:1002300070470022F6E710B513460A4604461946F1
:10024000FFF7F0FF204610BD421E12F8013F002BC1
:10025000FBD111F8013B02F8013B002BF9D17047AB
:1002600030B505462A460B4612F8010B13F8014B30
:1002700008B1A042F8D01CB1002802D06D1CF1E7F3
:10028000284630BDCAB2401E10F8011F8A4202D073
:100290000029F9D100207047421C10F8011B0029E9
:1002A000FBD1801A704710B5002200E0521C835C1D
:1002B0008C5CA34201D1002BF8D1D8B2E1B2401A34
:1002C00010BD10B5044600E0401C0378002BFBD1A4
:1002D00000E0401C521E04D311F8013B0370002BB8
:1002E000F7D100210170204610BD70B5064607F019
:1002F000C3FE046805460A220021304600F03DFA9C
:100300002C6070BDF0B480EA0102D40F4200B2EB61
:10031000410F02D20246084611464A0042D0C30DA0
:10032000DDB2C1F3C752AD1A202D35DAC1F3160183
:1003300041F4000204B15242C5F1200602FA06F16E
:100340002A411044B3EBD05F23D0C4B1012DA0EB00
:10035000C35009DCF0BC4FF0004202EAC352DBB2EA
:1003600000F5000000F04ABA400000F1807000EB98
:10037000C350A0F1807040EAD170490009E04908FB
:1003800041EAC071A0EBC35000F50000400800EB4B
:10039000C350F0BC00F029BA6142012202EB4101D6
:1003A000001BF6E7F0BC704781F00041AAE780F03F
:1003B0000040A7E780EA010210B502F000434000C8
:1003C00022D04A001FD0010E01EB1261C0F356008B
:1003D000C2F3560240F4000042F40002A0FB0220E7
:1003E00000047F39140400D0401C50EA124001D4AC
:1003F0004000491EC2B20C0604EBD010401C40085D
:10040000802A02D003E0002010BD20F00100002966
:1004100000DA0020184310BD30B480EA010202F077
:10042000004530F0004221F0004013D090B1C30DE0
:10043000D40DC2F31601C0F31600E41A41F4000112
:1004400040F400027D34914201D3641C00E0490075
:10045000002C02DA30BC002070474FF4000000236B
:10046000914201D3891A034340084FEA4101F7D171
:1004700051B1914202D14FF0004105E002D24FF05C
:10048000010101E06FF0010103EBC450284430BCCE
:1004900000F0ABB92DE9FE4F804681EA0300C00FA2
:1004A0000C46009021F0004123F00045B8EB02001B
:1004B000A94105D24046214690461C460B460246BD
:1004C00023F00040104347D0270DC7F30A00C3F3C1
:1004D0000A510290401A019040286BDAC3F31300CE
:1004E00040F4801B0098924620B10023D2EB030A0F
:1004F00063EB0B0B01985946C0F14002504600F0E7
:100500000BF906460D4650465946019A00F023F96C
:1005100010EB08006141002487EA115284EAE77376
:100520001A4340D0009A62B3019A012A4FEA075257
:1005300015DC001B61EB02014FF0004202EA07529A
:10054000CDE90042001C41F5801132462B4600F0F7
:1005500092F903B0BDE8F08F40462146F9E7001B51
:1005600061EB0201001C41F5801300185B4120186B
:10057000A2F5001747EB030140EAD570B6196D41AB
:1005800011E06D084FEA360645EAC0754FEA07529A
:10059000001B61EB0201001C41F5801149084FEA84
:1005A00030000019514132462B4603B0BDE8F04FF0
:1005B00000F052B90098012240000023D0EB020263
:1005C00063EBE073009821464FEAE074B8EB00005B
:1005D00061EB0401E9E783F000435BE781F0004150
:1005E00058E7C10F80EAE0700844CA07962300214B
:1005F00000F004B996230022114600F0FFB820F065
:100600000040C10DC0F3160040F400007F2901DA5C
:1006100000207047962903DCC1F19601C84070475D
:1006200096398840704770B5C1F30A5201F0004511
:100630000024C1F3130140F2FF3341F480119A42C8
:1006400001DA002070BD40F233439A42A2F23342F5
:1006500003DC524200F06FF800E090402C43F1D0F0
:10066000404270BD00F0004230F000400AD0C10DA1
:1006700001F56071C0F3160042EA0151C20840075B
:100680001143704700200146704730B50B460146C4
:1006900000202022012409E021FA02F59D4205D321
:1006A00003FA02F5491B04FA02F52844151EA2F1CB
:1006B0000102F1DC30BD2DE9F05F054600209246D5
:1006C0009B4688460646814640241BE02846414614
:1006D0004746224600F02FF853465A46C01A914129
:1006E00010D311461846224600F016F82D1A67EB73
:1006F00001084F4622460120002100F00DF817EBBB
:1007000000094E41201EA4F10104DFDC48463146B9
:100710002A464346BDE8F09F202A04DB203A00FA2F
:1007200002F1002070479140C2F1200320FA03F348
:10073000194390407047202A04DB203A21FA02F046
:100740000021704721FA02F3D040C2F1200291400B
:10075000084319467047202A06DBCB17203A41FA96
:1007600002F043EAE07306E041FA02F3D040C2F13E
:10077000200291400843194670472DE9F047914601
:100780000F4680460446002614F8015B2DB100F0A8
:10079000E3F90068405DC007F6D12B2D02D02D2D66
:1007A00018D0641E4A463946204600F0D9F927B1D0
:1007B0003968A14201D1C7F8008071054FF00204E9
:1007C0000BD54042002803DD07F056FC0460A0076B
:1007D000BDE8F08746F48066E4E70028F8DA07F021
:1007E0004BFC04606FF00040F2E70029A8BF70479F
:1007F000401C490008BF20F00100704710B4B0FA57
:1008000080FC00FA0CF050EA010404BF10BC7047F1
:1008100049B1CCF1200421FA04F411FA0CF118BF0B
:10082000012121430843A3EB0C01CB1D4FEA0061DA
:100830004FEA102042BF002010BC704700EBC350AD
:1008400010440029A4BF10BC7047401C490008BFD9
:1008500020F0010010BC704710B5141E73F10004A5
:1008600008DA401C41F1000192185B411A4301D1A2
:1008700020F0010010BD2DE9F04D92469B4611B1CC
:10088000B1FA81F202E0B0FA80F220329046FFF72E
:1008900043FF04460F4640EA0A0041EA0B01534673
:1008A0005A46084313D0114653EA010019D0C8F143
:1008B00040025046FFF73FFF05460E465046594658
:1008C0004246FFF729FF084305D0012004E02046F7
:1008D0003946BDE8F08D0020054346EAE0762C431A
:1008E00037430A986305E40AA0EB08000022FD0ADA
:1008F00044EA47540A3002D500200146E9E70105E1
:1009000010196941DDE9084500196941BDE8F04D5C
:10091000A2E72DE9FE4F81EA030404F0004421F030
:10092000004100944FF0000B23F0004350EA010413
:100930005ED052EA03045BD0C3F30A54C1F30A55F4
:100940002C44A4F2F3340194A0FB0254C1F313012C
:1009500041F48011C3F3130343F4801301FB0244F9
:1009600000FB034E840A970A44EA815447EA8357FE
:10097000A4FB076802958D0A05FB07854FEA932CB7
:1009800004FB0C542705029D4FEA065847EA163728
:10099000B5EB08056EEB070C870E920E47EA811740
:1009A00042EA8312A7FB0201B6EB0B0164EB0004E1
:1009B0002B0D43EA0C335E1844EB1C50DA465146CB
:1009C000E7FB0201C5F313044FEA0B3343EA145368
:1009D0004FEA0432019C43EA0603A4F10C0402949A
:1009E000009CCDE900B4FFF746FF03B0BDE8F08FEF
:1009F00000200146F9E72DE9F04D81EA030404F0F7
:100A0000004B21F0004514464FF0000A23F000414E
:100A100050EA050220D054EA01021DD0C5F30A575E
:100A20000246C5F31303C1F31300C1F30A5640F4A1
:100A3000801543F48013A7EB0608101BD64608F276
:100A4000FD3873EB050002D308F1010801E09218AC
:100A50005B41B8F1000F03DA00200146BDE8F08DDC
:100A600000204FF48011064684460EE0171B73EBFE
:100A7000050705D3121B63EB050306434CEA010C83
:100A800049084FEA300092185B4150EA0107EDD166
:100A900052EA030012D082EA040083EA0501084307
:100AA00005D0101BAB4106D20122002306E0002234
:100AB0004FF0004302E06FF0010253101AEB060002
:100AC0004CEB085110EB0A0041EB0B01BDE8F04D77
:100AD000FFF7C2BEC1F30A52C1F3130140F2FF3364
:100AE00041F480119A4202DA00200146704740F238
:100AF00033439A42A2F2334202DC5242FFF71BBE5A
:100B0000FFF70ABE30B5041E71F1000404DB4FF09C
:100B10000044404264EB0101141E73F1000405DB44
:100B20001C464FF00043524263EB0403994208BF56
:100B3000904230BD064C074D06E0E06840F00103EE
:100B400094E8070098471034AC42F6D3FFF7F4FA64
:100B5000401201086012010800487047C0110108E6
:100B60002DE9F05F82460078002715468B460AF192
:100B70000104B946302801D09DB113E014F8010BEF
:100B80000127782803D0582801D045B10AE00DB1DB
:100B9000102D07D10027102514F8010B02E00825BD
:100BA00000E00A250026B0460EE005FB080005FB24
:100BB00006F1012701EB10461FFA80F8B6F5803FD9
:100BC00000D3B94614F8010B294600F018F80028A4
:100BD000EBDABBF1000F05D00FB1641E00E0544604
:100BE000CBF80040B9F1000F06D007F045FA02211A
:100BF0000160C81EBDE8F09F48EA0640FAE73A28BF
:100C000000D2303820F02002412A01D3A2F137006F
:100C1000884201D34FF0FF30704730B58C1810F880
:100C2000012B12F00F0301D110F8013B120906D17C
:100C300010F8012B03E010F8015B01F8015B5B1E6B
:100C4000F9D101E001F8013B521EFBD1A142E6D3EC
:100C5000002030BD10B4194B1C68236823F0010339
:100C60002360E0606260164B1868036823F001039C
:100C70000360C1604260134B1B68134A9A60134BB8
:100C80001A689389138913F0020FFBD0036843F0AD
:100C900001030360236843F0010323600C4B1B68CE
:100CA0001B6813F4001FF9D0236823F001032360AD
:100CB000036823F00103036010BC7047746A0020CE
:100CC0006C6A0020706A002000007D0F646A0020BA
:100CD000686A002030B583B00D46002301932E4B87
:100CE000186014460AB100231380038803F0380308
:100CF000019303889BB223F038039BB203800388DF
:100D000043F01003038003889BB223F001039BB2DE
:100D10000380224B9D4230D92146012001F000FF83
:100D2000034638B31C4B1A6813889BB223F0380370
:100D30009BB21380019B11880B439BB21380174B0E
:100D40009D4203D9138843F001031380FA2004F075
:100D500095FBFA2004F092FBFA2004F08FFBFA20B6
:100D600004F08CFB23460E4A0021084600F094F85C
:100D7000034650B9184603B030BD2146022001F0A9
:100D8000CFFE03460028CDD1F4E70649044802F01F
:100D9000BAF90123EEE700BF646A0020FF2C31019D
:100DA000E4010020D01101080A4B00221A800A4BEE
:100DB00019680B8913F0020F08D1064A1388013312
:100DC0009BB213804EF660229342F0D9087300BFA5
:100DD00000BF7047C06A0020646A0020194B0022DF
:100DE0001A8008E017490B8801339BB20B804EF63E
:100DF00060218B420CD8144B1A68138913F0800FB2
:100E0000F0D1138903F4C053002BEBD100E0938998
:100E1000138903F04103002BF9D11073094B002112
:100E20001980138913F0010F08D106490B8801338B
:100E30009BB20B804EF660218B42F2D99089C0B2F2
:100E4000704700BFC06A0020646A002010B582B0FD
:100E5000049C0194009313460A460146282001F0A1
:100E60007DF802B010BD10B584B004AC04F8011DCB
:100E7000009201232246032101F02AF904B010BD9B
:100E800000B583B0009100231A460146012001F00D
:100E90008FF903B05DF804FBF0B58BB007460E4642
:100EA00015461C462022002102A8FFF7C4F90CB108
:100EB00000232380204602F032F8034610B918467A
:100EC0000BB0F0BD072001F0D7F8012001F0E6FDDE
:100ED0001F238DF8083000228DF809208DF80A3084
:100EE00000941346032102A801F006FD48B377B130
:100EF0009DF80A309DF80B2002EB03229DF80C3080
:100F000003EB02229DF80D3003EB02233B6016B188
:100F10009DF80E3033700DB100230AE00123CEE7B7
:100F200003F108020AA90A4412F8202CEA540133FA
:100F30009BB29DF80F209A42F2D80022EA54012376
:100F4000BDE70023BBE730B58BB005460C4609B1C1
:100F500000230B80204601F0E2FF034610B918463B
:100F60000BB030BD072001F087F8012001F096FD9D
:100F700010238DF8083000238DF809301A4607E059
:100F80000AA9194411F8201C0A44D2B201339BB2B9
:100F9000012BF5D98DF80A20009400231A4603216D
:100FA00002A801F0A9FC20B19DF80A302B700123A2
:100FB000D5E70023D3E730B58BB005460C46202299
:100FC000002102A8FFF737F90CB100232380204647
:100FD00001F0A5FF034610B918460BB030BD07203D
:100FE00001F04AF8012001F059FD12238DF8083074
:100FF00000238DF809301A4607E00AA9194411F8B0
:10100000201C0A44D2B201339BB2012BF5D98DF8D2
:101010000A20009400231A46032102A801F06CFC68
:1010200020B19DF80A302B700123D5E70023D3E7C8
:1010300030B58BB004460D462022002102A8FFF7F0
:10104000FAF80DB100232B80284601F068FF034613
:1010500010B918460BB030BD072001F00DF8012083
:1010600001F01CFD11238DF8083000238DF80930A4
:101070001A4607E00AA9194411F8201C0A44D2B202
:1010800001339BB2012BF5D98DF80A20009500237E
:101090001A46032102A801F02FFC80B100230E2B79
:1010A00009D89A1C0AA90A4412F8202CE25412B159
:1010B00001339BB2F3E70023E3730123C9E7002365
:1010C000C7E708B501F0DAFCFF2806D010F0100FD2
:1010D00001D1002008BD0120FCE70020FAE7000054
:1010E00070B5064601F0CAFCFF2804D10346002073
:1010F00006B1337070BD01F0C1FC03460028F7D083
:101100000024052C0FD80A4B1D5D284601F0A1F9DB
:101110000A2004F0B3F901F0B1FC0346854204D182
:101120000134A4B2EDE70120E2E70020E0E700BFD0
:101130003812010810B584B00446002302930193CD
:1011400005E0019B01330193029B01330293029B53
:10115000A3421FD2029B23F0250343F00103DBB21D
:101160008DF803309DF8030001F073F90A2004F0B4
:1011700085F901F083FC8DF80F009DF80F20D2B2A5
:101180009DF80330DBB29A42DBD0019BDBB28DF8D5
:101190000230D9E7412001F05CF90A2004F06EF931
:1011A000019804B010BD2DE9F0438BB00546884688
:1011B00017469946129E149C2022002102A8FFF790
:1011C0003AF80CB100232380204601F0A8FE034624
:1011D00018B918460BB0BDE8F083072000F04CFFAB
:1011E000012001F05BFC14238DF8083001238DF8F9
:1011F00009308DF80A5015358DF80B5000940023F6
:101200001A46042102A801F077FB00283FD09DF880
:101210000B3053B1B8F1000F02D0002388F8003032
:10122000BFB300233B700123D3E7B8F1000F03D015
:101230009DF80C3088F8003017B19DF80D303B70E8
:10124000B9F1000F07D09DF80E209DF80F3003EB89
:101250000223A9F8003076B1002308E003F1080268
:101260000AA90A4412F8202CF25401339BB20F2B26
:10127000F4D90023F373139B6BB19DF821209DF8E3
:10128000223003EB0223139A13800123A1E70023EA
:101290009FE701239DE701239BE700002DE9F04F25
:1012A0008BB080460F46149D179E189C0DB195F883
:1012B00000900CB1002323802146104601F0E0FE8F
:1012C00060B94FF0000A57460DB185F800900EB195
:1012D000A6F800A038460BB0BDE8F08F01F066FE1E
:1012E00001238DF8083002238DF809303B0A8DF870
:1012F0000A308DF80B700022134607E00AA9194442
:1013000011F8201C0A44D2B201339BB2032BF5D949
:101310008DF80C20009400231A46052102A801F044
:10132000EBFA002800F0D3809DF80A3043B324B1D3
:1013300001F0A4FB80B2000220809DF80A30FE2B51
:1013400019D00CD8FD2B50D0002C00F0C48023887D
:1013500043F02F0323804FF0000A5746B4E71CB137
:10136000238843F022032380C82004F087F84FF03D
:10137000000A5746A8E71CB1238843F023032380C3
:101380009DF80C309DF80DA00AEB032A1FFA8AFA8B
:1013900057452AD39DF80B905149524801F0B3FEAE
:1013A00000282BDD169B3BB19DF813209DF81230D1
:1013B00003EB0223169A1380159B63B19DF8163038
:1013C000159A13709DF8173053709DF8183093706C
:1013D0009DF81930D370052000F04EFE0A2004F06D
:1013E0004DF84FF0000B5F462FE02CB1238843F0FF
:1013F00024032380BA46CDE7BA46CBE7169B13B148
:101400000023169A1380159B002BE4D00023159A15
:10141000137053709370D370DDE7334B1B7883B335
:10142000AAEB07012029A8BF2021C9B208EB0700B9
:1014300001F03EF880B20744BFB2012004F01EF86C
:10144000062001F05DF8834648BB5745BFF43CAF2A
:10145000052001F023FB012004F010F8204601F0E4
:10146000F1FD0028D9D10BF1010B5FFA8BFBBBF129
:10147000010FD2D8052000F0FFFD052003F0FEFF8C
:10148000E3E7AAEB07012029A8BF2021C9B208EB96
:10149000070000F0EDFF80B20744BFB2CDE757452B
:1014A000BFF412AFAAEB0703202B3FF70DAF00F0FC
:1014B00039FD00283FF408AFAAEB0701C9B208EBD9
:1014C000070000F0D5FF80B20744BFB2FCE64FF042
:1014D000000A5746F8E64FF0000A5746F4E600BF08
:1014E000D8110108E4010020786A002010B588B006
:1014F0000A9C0494002403940294019400930DF137
:101500001F03FFF7CBFE08B010BD00002DE9F0432C
:1015100085B080460C4617461E460C9D9149924860
:1015200001F0F1FD002811DD90498F4801F0EBFD3D
:10153000002817DDB8F1000F78D000221F2A1ED82E
:1015400018F80230DBB10132D2B2F7E7009533462A
:101550003A462146404600F00DF90346184605B0CC
:10156000BDE8F0838249804801F0CDFD0028E1DB31
:10157000284600F0F7F9FA2003F080FFDAE71A2A8C
:1015800019D91B3A5FFA82F91B22009500234146C4
:101590001846FFF75BFC03460028DFD0B9F1000FC7
:1015A0000CD1002C42D000223F2A16D8A35CA3B154
:1015B0000132D2B2F8E74FF00009E6E700950023C8
:1015C0004A46092A28BF092208F11B011020FFF70B
:1015D0003DFC03460028E4D1C0E71A2A32D91B3A61
:1015E0005FFA82F81B220095002321460120FFF7B5
:1015F0002DFC03460028B1D0B8F1000F16D0B8F189
:101600001A0F22D9A8F11B025FFA82F94FF01B08CA
:1016100000950023424604F11B012020FFF716FC31
:10162000034600289AD0B9F1000F11D100953B462E
:1016300000221146FF20FFF709FC034600288DD049
:1016400000272EE04FF00008CDE74FF00009DFE75C
:10165000009500234A46092A28BF092204F13601D1
:101660002120FFF7F3FB03460028DFD176E7FA20BD
:1016700003F004FFFA2003F001FFFA2003F0FEFE5E
:10168000FA2003F0FBFE0134A4B2C72CEFD929469F
:101690000DF10F00FFF78FFC034601280CD0013736
:1016A000BFB2B84606EB86039F4246DA4FF6FF7399
:1016B0009F4242D00024E8E79DF80F20042A31D051
:1016C00015D8022A23D0032AE9D1731E03EB830322
:1016D000023B4345E3DC002D3CD001F0CFF983B25F
:1016E0001B029BB243F04A032B80002336E7052AF6
:1016F0003FF434AFFF2AD2D185B301F0BFF983B2F2
:101700001B029BB243F04C032B80002326E7FDB164
:1017100001F0B4F983B21B029BB243F04B032B8060
:1017200000231BE7C5B101F0A9F983B21B029BB2EC
:1017300043F04D032B80002310E78DB101F09EF99B
:1017400083B21B029BB243F032032B80002305E7D8
:10175000002303E7002301E70023FFE60023FDE663
:101760000023FBE6E0110108E4010020E811010874
:10177000101201082DE9F0438DB080460F46144643
:101780001E46149D2022002104A8FEF754FD0DB131
:1017900000232B80284601F0C2FB814618B9484639
:1017A0000DB0BDE8F083072000F066FC012001F0D9
:1017B00075F922238DF810301D238DF81130002388
:1017C00006E09A1C0CA8024402F8201C01339BB2CC
:1017D0000C2B03D818F803100029F2D100238DF840
:1017E0001F3007E003F110020CA8024402F8201C8D
:1017F00001339BB20C2B02D8F95C0029F2D10023F3
:101800008DF82D308DF82E401A4607E00CA91944AA
:1018100011F8201C0A44D2B201339BB21E2BF5D919
:101820008DF82F20009500231A46202104A801F0EE
:1018300063F8002800F084809DF81290B9F1000F41
:1018400070D1002DABD001F019F983B21B029AB20E
:101850009DF81230803313432B80A0E7FA2003F069
:101860000DFEFA2003F00AFEFA2003F007FEFA202C
:1018700003F004FE0134A4B2C72CEFD929460DF1C0
:101880000F00FFF798FB814601280BD00137BFB24C
:1018900006EB86039F4247DA4FF6FF739F4243D021
:1018A0000024E9E79DF80F30042B2FD010D8022B2D
:1018B00020D0032BEAD1002D48D001F0DFF883B20D
:1018C0001B029BB243F04A032B804FF0000966E7EE
:1018D000052B3FF464AFFF2BD8D1002D3CD001F095
:1018E000CDF883B21B029BB243F04C032B804FF028
:1018F000000954E73DB301F0C1F883B21B029BB26B
:1019000043F04B032B804FF0000948E70DB301F083
:10191000B5F883B21B029BB243F04D032B804FF00E
:1019200000093CE70027B3E7CDB101F0A7F883B287
:101930001B029BB243F032032B804FF000092EE7CD
:101940004FF000092BE74FF0000928E74FF000099E
:1019500025E74FF0000922E74FF000091FE74FF09D
:1019600000091CE770B58AB004462022002102A8B5
:10197000FEF761FC21461B4801F0F2FB50BB064616
:101980000CB100232380204601F0C9FA054610B3AC
:10199000072000F071FB012001F080F820238DF872
:1019A000083000228DF809208DF80A300094134683
:1019B000032102A800F0A0FF80B19DF80A507DB974
:1019C0004CB101F05BF883B21B029BB243F04E03B3
:1019D000238000E0002528460AB070BD3546FAE7AE
:1019E0000125F8E7101201082DE9F04F8DB0002411
:1019F0000794089409940A940B948DF81B4041B104
:101A00000E460024FF2C08D8355D35B10134A4B250
:101A1000F8E74F221A80A34617E0611E89B2FE291B
:101A20000FD81F46904681461B2C12D919464448B0
:101A300001F096FB68B90FB100233B804FF0000A1C
:101A400024E04F221A804FF0000B58460DB0BDE83D
:101A5000F08F3B4642463146484601F0C7F8834680
:101A6000F3E718250497CDF80C800294CDF804A074
:101A7000009506EB0A0336220DF11B0107A800F0C2
:101A8000B1FE834670B155441FFA85FAA2453ED295
:101A9000A4EB0A03172BE4DCE5B25FFA8AF1691ABA
:101AA000CDB2DFE7002FD0D000F0E8FF83B21B02F9
:101AB0009BB23B809DF81C20FC2A18D008D8FA2A3B
:101AC0001DD018D89C2A1ED143F04F033B80BCE7A1
:101AD000FE2A08D003D843F03C033B80B5E743F02F
:101AE0003A033B80B1E743F03B033B80ADE743F073
:101AF0005E033B80A9E743F05F033B80A5E743F02B
:101B00005F033B80A1E743F03D033B809DE700235B
:101B10000F2B0ED89DF81B209A420AD95A1C0CA9EB
:101B20000A4412F8142C09F8032012B101339BB2B5
:101B3000EEE7002209F803204FF0010B85E700BF14
:101B4000F811010870B58AB005460E4614462022E9
:101B5000002102A8FEF76FFB0CB100232380204672
:101B600001F0DDF9034610B918460AB070BD072030
:101B700000F082FA012000F091FF13238DF8083065
:101B800000238DF809301A4607E00AA9194411F814
:101B9000201C0A44D2B201339BB2012BF5D98DF837
:101BA0000A20009400231A46032102A800F0A4FE94
:101BB000E0B19DF80930002BD6D09DF90A30337082
:101BC00000231A2B0ED89DF80920023A934209DA15
:101BD000DA1C0AA90A4412F8202CEA5412B1013383
:101BE0009BB2EEE70022EA540123BDE70023BBE7E6
:101BF00000B585B0029300230193009300F090FCA0
:101C000005B05DF804FB70B58AB006460D46144673
:101C10000AB100231380204601F081F9034610B970
:101C200018460AB070BD072000F026FA012000F027
:101C300035FF15238DF8083002238DF809308DF813
:101C40000A608DF80B500022134607E00AA91944D8
:101C500011F8201C0A44D2B201339BB2032BF5D9F0
:101C60008DF80C20009400231A46052102A800F0EC
:101C700043FEA0B100240DE0FA2003F0FFFBFA20A0
:101C800003F0FCFBFA2003F0F9FBFA2003F0F6FB6B
:101C90000134A4B2132CEFD99DF80A30C0E7002319
:101CA000BEE700002DE9F04F93B007468A46904604
:101CB00099469DF870509DF874601E9C0023069311
:101CC000079308930993ADF8163004B12380214699
:101CD0008A4801F045FA60B90DF116012846FFF770
:101CE000CFF8834628B9BDF81620D3B2553B012B57
:101CF00012D98349834801F006FA00281DDA00232F
:101D00000F2B0CD818F8032012A9194401F8302C15
:101D10002AB101339BB2F3E75CB1228009E012AA39
:101D20001344002203F8302C204601F0F8F88346D3
:101D300068B9584613B0BDE8F08F23463246414695
:101D400006A8FFF751FE83460028EDD1F1E70720F2
:101D500000F092F9012000F0A1FE18238DF8283040
:101D600016238DF829308DF82A704FEA1A238DF842
:101D70002B308DF82CA000230F2B0CD812AA1A445C
:101D800012F8301C39B15A1D12A8024402F8201C66
:101D900001339BB2F0E705339BB206E012AA1A4466
:101DA000002102F8201C01339BB2142BF6D94FEA14
:101DB00019238DF83D308DF83E908DF83F5000226C
:101DC000134607E012A9194411F8201C0A44D2B2A4
:101DD00001339BB2172BF5D98DF8402000940023D6
:101DE000052219210AA800F087FD00287AD09DF865
:101DF0002AB0BBF1000F0FD0002C76D000F03EFED1
:101E000083B21B029AB29DF82A30C3F180031343B8
:101E100023804FF0000B8CE7002F69D0022F6AD08F
:101E2000012F86D14FF0000941E0FA2003F026FB94
:101E3000FA2003F023FBFA2003F020FBFA2003F042
:101E40001DFB08F10108B8F1C70FEEDD0294002177
:101E5000019100910B460DF115022846FFF7A3F9F9
:101E600008B39DF81530062B1DD8DFE803F0041CDD
:101E70002D2D2D2D1000002C3FF45BAF00F0FEFD4A
:101E800083B21B029BB243F03303238051E7002C43
:101E90003FF44FAF00F0F2FD83B21B029BB243F060
:101EA0003903238045E709F101091FFA89F906EB97
:101EB000860399450ADA4FF6FF73994506D04FF02D
:101EC00000088DF81580BEE7BB4632E7002C3FF4D2
:101ED00030AF00F0D3FD83B21B029BB243F034035A
:101EE000238026E74FF0000B23E74FF0000B20E79D
:101EF0004FF0010B1DE74FF0010B1AE7101201081C
:101F0000F0110108E401002008B500F0B7FDFF283A
:101F100006D010F0800F01D1002008BD0120FCE7A1
:101F20000020FAE708B500F0A9FD034618B110F04B
:101F3000200F02D00023184608BD0123FBE708B597
:101F400000F09CFDFF2806D010F0010F01D1002009
:101F500008BD0120FCE70020FAE700002DE9F0476A
:101F60008AB005460F4691469846139C20220021D0
:101F700002A8FEF760F90CB10023238021463D48FA
:101F800001F0EEF8064628B14FF0000A50460AB0BC
:101F9000BDE8F087204600F0C2FF82460028F5D059
:101FA000072000F069F8012000F078FDB8F11B0F60
:101FB00001D94FF01B088DF8085008F102038DF885
:101FC00009309DF848308DF80A308DF80B700023E9
:101FD00008E01A1D19F803100AA8024402F8201C90
:101FE00001339BB21A2B36D81FFA88F29A42F0D8E6
:101FF0003246002107E00AAB0B4413F8203C1A4498
:10200000D2B2013189B208469DF8093002339942B3
:10201000F1DB0AAB184400F8202C282D1ED04FF419
:102020007A72013100940023C9B202A800F064FC66
:10203000D8B19DF80AA0BAF1000F18D1002CA5D094
:1020400000F01CFD83B21B029AB29DF80A30803367
:10205000134323809AE732460021D4E7FF2F01D0B3
:102060000A22DEE74FF47A72DBE7B2468EE74FF0E2
:10207000010A8BE708120108F8B5044600F0FEFCDF
:102080000127A740FF437FB207EA0003DBB2984273
:102090001CD006460024B4F57A7F0BD200F0EEFC8B
:1020A0000546864206D0022003F0E8F90134A4B2C6
:1020B0002E46F0E707EA0500C0B2854206D000F0E0
:1020C000FB0000F0C6F90A2003F0D8F9F8BD0000C3
:1020D0002DE9F0438BB08146884617461E46129C78
:1020E0000CB1002323802146304801F039F8054621
:1020F00020B1002318460BB0BDE8F083204600F065
:102100000EFF03460028F5D00720FFF7B5FF01209A
:1021100000F0C4FC2D238DF80830F31C8DF8093035
:102120008DF80A908DF80B808DF80C600023B2B208
:102130009A4208D95A1DF95C0AA8024402F8201CE8
:1021400001339BB2F3E72A46002108469DF8093087
:102150000233994208DA0AAB0B4413F8203C1A44C4
:10216000D2B2013189B2F0E70AAB184400F8202C52
:102170000131009400231A46C9B202A800F0BCFB4A
:1021800068B19DF80A3063B16CB100F077FC83B29E
:102190001B029BB243F0410323802B46AAE72B4648
:1021A000A8E70123A6E72B46A4E700BF0012010819
:1021B0002DE9F0418EB006460D4617469846149C10
:1021C0000CB10023238002940023019300930DF1AE
:1021D00016020DF117012846FEF7E5FF0346002819
:1021E00063D09DF81730022B54D81BB19DF81620F0
:1021F000002A5ED01EB9002B5DD0012B31D00EB964
:10220000022B34D0204600F08AFE034600284CD032
:102210000720FFF731FF012000F040FC002E4CD0DA
:1022200019238DF8183001238DF819308DF81A50C4
:10223000A7B13B788DF81B307B788DF81C30BB78CC
:102240008DF81D30FB788DF81E304FEA18238DF87D
:102250001F308DF8208007238DF819300022114699
:1022600035E09DF81620062AC9D1572513E0002134
:102270000EAA02F8231D0294019100910B462846F4
:1022800000F061F8034680B19DF81530002BB9D1FC
:10229000572500E05425002C4FD000F0EFFB83B20F
:1022A0001B029BB22B432380002318460EB0BDE8CF
:1022B000F0815425EFE75725EDE71A23B1E70EAB80
:1022C0000B4413F8203C1A44D2B20131C9B208467B
:1022D0009DF8193002339942F1DB0EAB184400F837
:1022E000202C0131009400231A46C9B206A800F040
:1022F00003FB20B39DF81A307BB1F42B0DD004B34F
:1023000000F0BCFB83B21B029AB29DF81A30C3F1F5
:102310008003134323800023C7E79DF817300BB1D8
:10232000002406E00123C0E7FA2003F0A7F80134F7
:10233000E4B2072CF8D90123B7E70023B5E700235F
:10234000B3E70023B1E72DE9F0418AB005460F4617
:1023500016469846129C2022002102A8FDF76BFF2A
:102360000EB1002333700CB100232380204600F00F
:10237000D6FD034618B918460AB0BDE8F08107201B
:10238000FFF77AFE012000F089FB2F238DF808303B
:1023900002238DF809308DF80A508DF80B70313515
:1023A000EDB23D448DF80C50009400231A460521EF
:1023B00002A800F0A1FA002845D09DF80C30E3B146
:1023C000002C42D000F05AFB83B21B029BB2238048
:1023D0009DF80C20FF2A06D0FE2A09D043F03503D1
:1023E00023800023C7E743F05A0323800023C2E77A
:1023F00043F05B0323800023BDE716B19DF80D3049
:102400003370109B63B19DF80E30109A13709DF8D5
:102410000F3053709DF8103093709DF81130D370C9
:10242000119B3BB19DF812209DF8133003EB022362
:10243000119A1380B8F1000F09D09DF8143088F874
:102440000030012397E7002395E7002393E701235A
:1024500091E710B50446002002F0F6FF0120FEF7D8
:10246000A3FC2046FEF7BAFC012002F0EDFF10BDF0
:1024700070B50D46C9B1202900D920250646002097
:1024800002F0E2FF0320FEF78FFC0020FEF7A6FC1F
:10249000002405E00020FEF7A1FC30550134E4B231
:1024A000A542F7D8012002F0CFFF284670BD0000FA
:1024B000F8B50646202913D80D46104F03233B706C
:1024C00000247C70204602F0BFFFAA1C07F1220105
:1024D0003846FEF7BFFB012002F0B6FF204609E0B8
:1024E0002025EAE7821C054B134493F8223033542D
:1024F0000130C0B28542F5D82846F8BD7C6A00207C
:1025000010B5044600F0BAFAFF2807D0204110F0B9
:10251000010F01D1002010BD0120FCE70020FAE7E7
:102520002DE9F0478EB080460C4691461F46169E18
:10253000BDF85CA0189D00230293039304930593B8
:1025400005B12B80012F21D0284600F0E8FC00289F
:102550003ED10026022000F0A1FA022002F08EFFF8
:102560000F21042000F0BEFC002800F02981A642C3
:1025700008D3B4F5807F05D8F92C40F225810A20D4
:1025800002F07CFF30460EB0BDE8F08792499348D8
:1025900000F0B9FD002811DA00230F2B08D8F25CF7
:1025A0000EA9194401F8302C12B101339BB2F4E7A3
:1025B0000EAA1344002203F8302CC5E72B46142240
:1025C000314602A8FFF710FA0028BDD10026D9E74E
:1025D00000F012FD00238DF8183004228DF8192028
:1025E0008DF81A90220A8DF81B208DF81C408DF86A
:1025F0001D30012F02D000210B4631E001238DF860
:102600001D30002306E09A1D0EA8024402F8201C8B
:1026100001339BB20F2B05D80EAA1A4412F8301CB6
:102620000029F0D106339BB206E00EAA1A4400211D
:1026300002F8201C01339BB2152BF6D94FEA1A235E
:102640008DF82E308DF82FA016238DF81930D2E793
:102650000EAA1A4412F8202C1144C9B201339BB2BD
:1026600018469DF8192002329342F1DB0EAB184454
:1026700000F8201C9DF819100331009500231A461C
:10268000C9B206A800F038F9002800F087809DF84C
:102690001A30002B5AD025B100F0F0F980B20002B8
:1026A00028809DF81A30F83B072B47D8DFE803F065
:1026B0003E362E261E160E041DB12B8843F0120343
:1026C0002B80C82002F0DAFE002643E7002D67D0F9
:1026D0002B8843F013032B8000263BE7002D61D0AD
:1026E0002B8843F014032B80002633E7002D5BD0AA
:1026F0002B8843F015032B8000262BE7002D55D0A7
:102700002B8843F018032B80002623E7002D4FD0A1
:102710002B8843F019032B8000261BE7002D49D09E
:102720002B8843F01A032B80002613E7002D43D09B
:102730002B8843F01B032B8000260BE7002D3DD098
:102740002B8843F01F032B80002603E70B2002F0A9
:1027500095FE002611E0202716E0F9B208EB0600EE
:1027600000F07EFB0B2002F089FE284600F0ADFC55
:1027700000283FF4EFAE3E44B6B2A642BFF4EAAE44
:10278000A31B202BE7DC9FB2154B1B78002BE4D05A
:10279000F9B208EB060000F041FBE3E70026D9E6BA
:1027A0000026D7E60026D5E60026D3E60026D1E6A9
:1027B0000026CFE60026CDE60026CBE60026C9E6B9
:1027C000022000F06BF9D2E6142002F057FEE0B2CE
:1027D000C043C0B2D4E600BFF0110108E4010020FC
:1027E000786A00202DE9F04F8BB007460E469346DD
:1027F00098469DF85040BDF85490BDF858A0189DDB
:102800002022002102A8FDF716FD0DB100232B8028
:10281000284600F084FB034618B918460BB0BDE803
:10282000F08F0720FFF728FC012000F037F98DF822
:1028300008B04FEA1A238DF80A308DF80BA04FEA42
:1028400019238DF80C308DF80D908DF80E40002373
:1028500008E0DA1D18F803100AA8024402F8201C48
:1028600001339BB2A2B29A42F3D8631D8DF80930AE
:102870000022134607E00AA9194411F8201C0A4453
:10288000D2B201339BB21846E11D8B42F3DB0AAB97
:10289000184400F8202C9DF809109DF85C301E2B80
:1028A00028BF1E23C3EB431203EB8203DA0093B26B
:1028B000033100950022C9B202A800F01DF8A8B1AA
:1028C0009DF80A30A3B9AFB19DF8093033700023E9
:1028D00007E09A1C0AA90A4412F8202CFA54013382
:1028E0009BB232789A42F4D8012396E7002394E70A
:1028F000002392E7012390E72DE9F84307461446A9
:10290000994690F8008000F055FA0A2002F0B6FDD2
:102910000CE0FA2002F0B2FDFA2002F0AFFDFA203E
:1029200002F0ACFDFA2002F0A9FD2C46631E9DB218
:10293000002CEED1089800F0C8FB002800F08C8035
:102940004FF47A7606FB09F636094A4BA3FB0636A6
:10295000F60901362546A946B54206D2089800F088
:10296000FDFA10B90135ADB2F5E7B14501D300204C
:1029700073E020213846FFF77BFD0A2002F07EFD40
:102980000720FFF779FB7978002304E03A5D1344D0
:10299000DBB20134A4B28A1C9442F7DB39448A7852
:1029A0009A420DD0089B002B59D000F067F883B2F3
:1029B0001B029BB243F03003089A138000204CE0C6
:1029C0003B7823F08003434512D0B8F1360F0DD089
:1029D000089B002B45D000F051F883B21B029BB23C
:1029E00043F03103089A1380002036E0252BEFD105
:1029F0000021214800F0B4FB002834D1BB78782BAB
:102A000001D0012029E0089B002B2ED000F036F8E1
:102A100083B21B029BB2089A1380BA78032A15D896
:102A2000DFE802F02502080E43F04503089A138000
:102A3000002012E043F04603089A138000200CE0C7
:102A400043F04703089A1380002006E043F0480350
:102A5000089A1380002000E00020BDE8F8830020E1
:102A6000FBE70020F9E70120F7E70020F5E7012068
:102A7000F3E700BFC55A7C0A1012010810B5002008
:102A800002F0E2FC0420FEF78FF90020FEF7A6F921
:102A90000446012002F0D8FC204610BD2DE9F0418B
:102AA0008046FFF7EBFF0646012707FA08F77FB2DB
:102AB00047EA0003DBB298420FD00024B4F57A7FD6
:102AC00015D2FFF7DBFF0546864210D0022002F048
:102AD000D5FC0134A4B22E46F0E7B8F1020F04D0C1
:102AE000B8F1050F12D10024E8E70024E6E747EA31
:102AF0000500C0B285420BD0B8F1020F01D000F042
:102B0000FB00FFF7A6FC0A2002F0B8FCBDE8F0814C
:102B1000B8F1020FF0D0B8F1050FF7D1ECE70000E3
:102B200030B58FB005460C4609B100230B80204616
:102B300000F0F5F9034610B918460FB030BD072074
:102B4000FFF79AFA0120FFF7A9FF42238DF818300A
:102B500001238DF819308DF81A50002308E0DA1C93
:102B60002049C95C0EA8024402F8201C01339BB224
:102B70000F2BF4D91C4A03AB07CA03C31A700023F6
:102B80008DF815300BE003F113020EA9194411F86A
:102B90002C1C0EA8024402F8201C01339BB2092B06
:102BA000F1D91B238DF819300023194607E00EAA2E
:102BB0000A4412F8202C1344DBB2013189B21C29DB
:102BC000F5D90EAA0A4402F8203C013100940023F2
:102BD0001A46C9B206A8FFF78FFE08B10123ABE77A
:102BE0000023A9E728120108C41101082DE9F041CA
:102BF0008EB004460D4617461E462022002106A828
:102C0000FDF719FB0EB1002333803146674800F011
:102C1000A7FA8046002840F0C080654B0DF1080CF3
:102C20000FCB8CE80F0000230F2B09D8E95C0EAA0C
:102C30001A4412F8302C914202D101339BB2F3E7CF
:102C40000F2B0CD9002306E00EAA1A4412F8302CE0
:102C5000E25401339BB20F2BF6D901239EE030469C
:102C600000F05DF90346002800F098800720FFF788
:102C700003FA0120FFF712FF25238DF818308DF895
:102C80001A7000231A2B09D8DA1CE95C0EA802443A
:102C900002F8201C11B101339BB2F3E71846D91C8E
:102CA0000EAA1144002201F8202C02338DF81930AD
:102CB0004146134607E00EAA1A4412F8202C11448C
:102CC000C9B201339BB21D46021D9342F3DB0EAB2A
:102CD0001D4405F8201C9DF819101E2F28BF1E2723
:102CE000C7EB471307EB8307FB009BB2033100964A
:102CF0000022C9B206A8FFF7FFFD002852D09DF8B8
:102D00001A308BB1002E4FD0FFF7B8FE83B21B02F2
:102D10009BB233809DF81A20FA3A052A38D8DFE8AA
:102D200002F0322D28231E1900230F2B0ED89DF8F8
:102D30001920023A934209DADA1C0EA90A4412F861
:102D4000202CE25412B101339BB2EEE70022E25490
:102D5000012323E043F03A03338043461EE043F06F
:102D60003B033380434619E043F03C033380434642
:102D700014E043F05E03338043460FE043F05F030B
:102D8000338043460AE043F05F033380434605E067
:102D900043F03D033380434600E0002318460EB065
:102DA000BDE8F0814346F9E74346F7E7F011010833
:102DB0001812010869B370B506460D461F2900D9DF
:102DC0002025002002F040FB0220FDF7EDFF00204F
:102DD000FDF7EAFF002404E0305DFDF7E5FF013474
:102DE000E4B2A542F8D80B4B00221A800A4B1B68AC
:102DF0001B8913F0800F08D0064A138801339BB259
:102E000013804EF660229342F0D9012002F01CFBA1
:102E100070BD7047C06A0020646A002038B50D4656
:102E20001F2900D920250D4A022313700023537057
:102E300005E09A1CC45C09498C540133DBB29D4205
:102E4000F7D8002002F000FB0448AA1C00F1220180
:102E5000FDF700FF012002F0F7FA38BD7C6A002080
:102E600069B370B506460D461F2900D920250020FC
:102E700002F0EAFA0220FDF797FF0020FDF794FF29
:102E8000002404E0305DFDF78FFF0134E4B2A54279
:102E9000F8D80B4B00221A800A4B1B681B8913F0D1
:102EA000800F08D0064A138801339BB213804EF678
:102EB00060229342F0D9012002F0C6FA70BD70473B
:102EC000C06A0020646A002008B5FFF7D7FDFF281C
:102ED00006D010F0020F01D1012008BD0020FCE750
:102EE0000020FAE770B506460D46002404E00220F3
:102EF00002F0C4FA0134A4B2B4EB550F0DD24FF670
:102F0000FF739C4207D0FFF7B9FDFF28EFD0304296
:102F1000EDD0012002E0002000E0002070BD38B5B7
:102F20000546002446F2A7139C4208D8FFF707F88D
:102F300080B9022002F0A2FA0134A4B2F2E75DB136
:102F4000FFF79CFD83B21B029BB243F010032B8062
:102F5000002000E0012038BD0020FCE738B5054620
:102F6000002446F2A7139C420DD8FEF7CDFF28B9E6
:102F7000022002F083FA0134A4B2F2E795B10023F3
:102F80002B80012038BD7DB1FFF778FD83B21B0295
:102F90002B80022002F072FA2B8843F016032B805C
:102FA0000020EFE70120EDE70020EBE770B5FFF729
:102FB00065FD00F05F0343F0020398421BD0064614
:102FC0000024B4F57A7F0BD2FFF758FD0546864200
:102FD00006D0022002F052FA0134A4B22E46F0E7E5
:102FE00005F05F0040F00200854204D0FFF731FA9F
:102FF0000A2002F043FA70BD70B5FFF73FFD00F004
:103000007B0343F0020398421BD006460024B4F52C
:103010007A7F0BD2FFF732FD0546864206D00220AA
:1030200002F02CFA0134A4B22E46F0E705F07B0042
:1030300040F00200854204D0FFF70BFA0A2002F0AC
:103040001DFA70BD38B50546002446F2A7139C4210
:1030500007D8FEF767FF78B9022002F00FFA0134B3
:10306000F3E75DB1FFF70AFD83B21B029BB243F0A9
:1030700020032B80002000E0012038BD0020FCE769
:1030800070B505460E4600244FF47A7303FB05F332
:10309000B4EB530F0AD2B4F1FF3F07D0FEF711F89B
:1030A00078B9022002F0EAF90134EDE75EB1FFF7EA
:1030B000E5FC83B21B029BB243F010033380002077
:1030C00000E0012070BD0020FCE738B50546002473
:1030D00046F2A7139C4207D8FFF7F6FE78B9022004
:1030E00002F0CCF90134F3E75DB1FFF7C7FC83B21E
:1030F0001B029BB243F011032B80002000E0012053
:1031000038BD0020FCE770B400230AE00022C2545E
:103110000EE02A78AAB10C5D9CB1A24211D1013314
:10312000DBB21C46C518C25C533AD2B2012AEDD9B3
:103130000E190A5D533AD2B2012AEAD800220A5582
:10314000E7E733789A4206D808D001D3012003E09C
:103150004FF0FF3000E0012070BC70470020FBE71B
:1031600010B50C4601460A48FFF7CDFF002801DBE9
:10317000002010BD4CB1FFF781FC83B21B029BB253
:1031800043F0770323800120F3E70120F1E700BF3C
:10319000E401002008B50121042003F0B9FB102050
:1031A0008DF803000001ADF8000003208DF8020047
:1031B0006946034801F07AFA002000F003F808BDE0
:1031C0000008014010B5044622464FF480710348C0
:1031D00001F004FB0248047010BD0000000801402B
:1031E0004801002000BFFEE710B500201E4908700E
:1031F00002F054F8C088C0EBC0004004040C1BA1CE
:10320000204601F0A5FB01221103224801F0E6FA55
:1032100026E01548007802281BD100BF04201D4974
:103220001431086020201C494861086104201949B4
:1032300010310860202018494861086100BF174C10
:103240002389E288A189608901F0A6FE0020064951
:10325000087001210F4802F00DF8012800D100E0AC
:10326000D7E700BF10BD0000EB0000204C656E7377
:1032700020666F6375732E5072657373204B4559CA
:103280003220746F20656E74657220737973746573
:103290006D2E0000000801400010014028000020B1
:1032A00010B502F095FC012806D0601CC4B2052CB4
:1032B00002DD03A004F0A6FE08A004F0A3FE10BDEA
:1032C0000D0AC3BBD3D0BCECB2E2B5BD4F56373705
:1032D0003235C9E3CFF1CDB70D0A00000D0A4F56C4
:1032E00037373235C9E3CFF1CDB7B3F5CABCBBAF81
:1032F000CDEAB3C90D0A000038B509480078084C7A
:1033000000902389E288A188608802F084FD054846
:103310000388054802880021084601F0ADFA38BD4F
:103320003C000020220100202001002038B5154972
:10333000C87C02F00EFD1349C87B02F07DFC1149E8
:1033400091F9100002F010FC0E4991F9110002F001
:10335000D7FB0C4991F9120002F01DFC0949C87C09
:1033600002F0F7FC07480078064C00902389E288B9
:10337000A188608802F04FFD2146887B01F028FC7F
:1033800038BD00002800002010B502F083F9014983
:10339000087010BD140000201FB57FE009F0ACF8E4
:1033A0003F480068401C3E4908603E4800F0A4F8D1
:1033B00009F0B4F83C48007850B901F06FFFC088BC
:1033C00000EB400084B239A1204601F0C1FA1CE0B4
:1033D0003548007801280AD101F060FFC08800EB71
:1033E000400084B233A1204601F0B2FA0DE02E482D
:1033F0000078022809D101F051FFC08800EB40009D
:1034000084B22FA1204601F0A3FA254800683C2190
:10341000B0FBF1F201FB120421480068B0FBF1F0AF
:10342000B0FBF1F201FB12051D4800684FF4616129
:10343000B0FBF1F62B46324625A101A8009404F01A
:10344000F1FD01F02BFFC0884004040C01A92046C7
:1034500001F07EFA1348C27823A101A804F0E2FD2E
:1034600001F01CFFC0888004040C01A9204601F073
:103470006FFA0C4882781EA101A804F0D3FD01F078
:103480000DFFC08800EB800084B201A9204601F046
:103490005FFA4FF47A7009F07FF800BF7EE7000012
:1034A00018000020F8010020140000204F6E6C6905
:1034B0006E652100436865636B207769666921004A
:1034C000436865636B2073657276696365210000EC
:1034D000686F75723A25643A6D696E3A25643A737D
:1034E00065633A256400000048554D3A25640000A4
:1034F000544D503A256400003EB50446474801F05B
:1035000059F801A800F066FA00283DD04448007838
:103510000090444803784448B0F900204348B0F98B
:10352000001001A800F0B2F941A14B4804F0AAFC38
:103530009DF8062049A1484804F0A4FC9DF8042009
:103540004AA1454804F09EFC3848B0F900204BA140
:10355000414804F097FC3448B0F900204BA13E48A4
:1035600004F090FC2F4802784CA13B4804F08AFC00
:103570002B4802784DA1384804F084FC9DF80400E3
:10358000E0709DF80600A070244801784BA004F07C
:1035900039FD22480078012802D14AA004F032FD0A
:1035A0001E480078207160792049B1F900108842E6
:1035B00008D01E48007860711C490878022106F086
:1035C0008BFA29E0A0791849B1F90010884208D097
:1035D00015480078A07114490878032106F07CFA98
:1035E0001AE0E0790F490978884208D00D48007840
:1035F000E07100210B48007806F06EFA0CE0207AAA
:1036000007490978884207D00548007820720121CF
:103610000348007806F060FA3EBD00006201002019
:1036200061010020600100205E0100205C0100209B
:103630002D2D2D2D2D2D2D2D2D2D2D2D2D2DBCE078
:10364000B2E2CAFDBEDD2D2D2D2D2D2D2D2D2D2DC2
:103650002D2D2D2D0D0A000000380140CEC2B6C818
:10366000A3BA256420A1E60D0A000000CAAAB6C8C4
:10367000A3BA256420A3A552480D0A00D7EEB8DFEF
:10368000CEC2B6C8A3BA25640D0A0000D7EEB5CDE8
:10369000CEC2B6C8A3BA25640D0A0000D7EEB4F3B3
:1036A000CAAAB6C8A3BA25640D0A0000D7EED0A1F5
:1036B000CAAAB6C8A3BA25640D0A0000BBF0C7E9C0
:1036C00025640000BBF0C7E90000000070B50025CC
:1036D0004FF4803400E0641E24B1802003F026FC07
:1036E0000028F8D014B90325284670BD40F2FF50D9
:1036F00003F0D4FB2846F8E7014600BF0748406BBB
:1037000000F045000028F9D040F2FF50034A9063D2
:103710001046406908221040C0B270470080014046
:1037200070B500251048446B01E00F48446B04F06D
:1037300045000028F9D004F0040028B10325042036
:1037400003F0ACFB284670BD04F0010028B1012550
:10375000012003F0A3FB2846F5E740F2FF5003F0F9
:103760009DFB2846EFE700000080014070B5002572
:103770000B48446B01E00A48446B04F04500002804
:10378000F9D004F0040028B10325042003F086FBDF
:10379000284670BD40F2FF5003F080FB2846F8E752
:1037A000008001402DE9F04106460F464FF0000829
:1037B0002248456B01E02148456B05F04500002893
:1037C000F9D005F0040038B14FF00308042003F0ED
:1037D00065FB4046BDE8F08105F0010030B14FF0D7
:1037E0000108012003F05AFB4046F3E703F098FB81
:1037F000B04203D04FF010084046EBE740F2FF50D4
:1038000003F04CFB002003F0A5FB044604F46040E9
:1038100018B9200C38804046DCE704F4005008B1A9
:103820001320D7E704F4804008B11020D2E704F455
:10383000004008B10F20CDE74046CBE700800140B3
:1038400070B500264FF480350F48446B02E06D1EC2
:103850000D48446B04F0450008B9002DF7D115B1AF
:1038600004F0040028B10326042003F017FB3046BF
:1038700070BD04F0400028B10026402003F00EFB8C
:103880003046F5E73046F3E7008001402DE9F0418E
:1038900004460D4616461F46DDF81880A078A8425B
:1038A00005DB02201249087004F04EFB0DE0A07801
:1038B000B04205DC03200E49087004F045FB04E02B
:1038C00000200B49087004F03FFB2078B84205DB6C
:1038D00004200749087004F037FB07E020784045D2
:1038E00004DC05200249087004F02EFBBDE8F081DD
:1038F0001E01002008B50121402003F009F84020F6
:10390000ADF8000010208DF8030003208DF80200B0
:103910006946024800F0CAFE08BD000000180140D8
:1039200010B5FFF7E7FF4021014800F055FF10BD3B
:103930000018014008B54020ADF8000048208DF87F
:1039400003006946014800F0B1FE08BD00180140BF
:1039500008B54020ADF8000010208DF803000320CA
:103960008DF802006946024800F0A0FE08BD000084
:103970000018014070B50024002500BF24E000BFFE
:103980004021134800F01DFF0028F9D0232000F04B
:103990007BF840210E4800F014FF01280DD100BF34
:1039A00040210B4800F00DFF0128F9D0C4F10701B8
:1039B00001208840C0B2054304E0C4F107010120A2
:1039C00088408543601CC4B2082CD8DB284670BDF3
:1039D0000018014010B50446FFF7BAFF4021244803
:1039E00000F0F8FE122000F045F84021204800F0D9
:1039F000F3FE1E2000F048F8FFF79CFF40211C4812
:103A000000F0DFFE80BB00BF4021194800F0D9FE66
:103A10000028F9D000BF4021154800F0D2FE01284F
:103A2000F9D0FFF7A7FF2070FFF7A4FF6070FFF742
:103A3000A1FFA070FFF79EFFE070FFF79BFF2071D2
:103A4000FFF786FF40210A4800F0C6FE2078617823
:103A50000844A1780844E17808442179884201D1DA
:103A6000012010BD0020FCE7FFE70020F9E700007F
:103A70000018014030B504464FF47A7004FB00F59D
:103A8000284600F001F830BD002106E00A2100BF01
:103A90000A1EA1F1010399B2FAD1021EA0F10100A0
:103AA000F4D1704700F0805111B10349086001E082
:103AB00002494860704700000404024000000240D0
:103AC00021B1026842F00102026004E002684FF690
:103AD000FE731A400260704701460020002201F088
:103AE000805313B1054B1A6801E0054B1A6802EACE
:103AF00001030BB1012000E00020704700040240E8
:103B00000000024010B50022026847F6F0739A43A5
:103B10000C6A8B6823430C6923434C6923438C69EB
:103B20002343CC6923434C6A23438C6A23431A43BF
:103B30000260CB6843600B6883604B68C36010BD54
:103B40007047000008B50121042002F0E1FE4FF4A7
:103B50008050ADF8000014208DF803006946044839
:103B600000F0A4FD01221103014800F037FE08BD5A
:103B70000008014010B50446207B012802D12068CE
:103B800006F00AFE002020606060A060207310BD77
:103B900070B504460E460025206898B901202073B0
:103BA000304607F0C7FF20602068E0B10020606069
:103BB000A66003E00020216848556D1CA068A8425B
:103BC000F8D810E00220207303E000202168485557
:103BD0006D1CA068A842F8D800206060A068B042C0
:103BE00001D20020206070BD2DE9F04780460E46CE
:103BF00091461D46089C70190DB1062100E0022176
:103C00004718791D2046FFF7C3FF206810B901202F
:103C1000BDE8F087B0216268501C60602068815464
:103C2000A1888AB23946206804F0D4F96168084452
:103C3000606031126268501C606020688154626864
:103C4000501C606020688654D4E9001288183246FF
:103C50004146FCF7D5FA60683044606015B3290E20
:103C60006268501C606020688154C5F30741626837
:103C7000501C606020688154C5F307216268501CA5
:103C80006060206881546268501C606020688554C0
:103C9000D4E9001288182A464946FCF7B1FA606850
:103CA000284460600020B3E72DE9F047804689464C
:103CB00017461C464046FCF7EFFAC5B24846FCF7EB
:103CC000EBFAC6B238212046FFF762FF206810B930
:103CD0000120BDE8F0871020216808706068401C52
:103CE000606005F10D003044216848706068401C38
:103CF000606000202168887003202168C8706068B7
:103D0000801C60602168081D032221A1FCF7D9FAFC
:103D10006068C01C606001202168C8716068401C38
:103D200060604020216808726068401C6060380A4A
:103D30002168487221688F726068801C6060002072
:103D40002168C87221680D736068801C60602168FA
:103D500001F10D002A464146FCF7B3FA6068284499
:103D60006060002105F10D0022681154401C22689A
:103D700016546068801C606021680F314819324613
:103D80004946FCF79EFA6068304460600020A0E776
:103D9000454450002DE9F84F81460D4617461E4612
:103DA0000A9C002000904846FCF776FA00F0FF08D5
:103DB000022E03D117B90120BDE8F88F022E08D1D9
:103DC0003846FCF769FA824651462046FFF7E0FE86
:103DD00004E005F118012046FFF7DAFE206808B973
:103DE0000220E9E780216268501C606020688154ED
:103DF000B9F1000F3ED0022E06D13846FCF74CFA3E
:103E00000C302844009003E005F108004044009085
:103E1000A1888AB22068009904F0DCF8616808443F
:103E20006060C0216268501C60602068815400217D
:103E30006268501C6060206881546168481C606042
:103E4000206800F80180D4E90012881842464946EB
:103E5000FCF737FA60684044606055216268501C86
:103E6000606020688154AA216268501C60602068EC
:103E7000815425E0022E06D13846FCF70DFA0A30AF
:103E80002844009001E0A81D0090A1888AB2206813
:103E9000009904F09FF861680844606040216268FE
:103EA000501C60602068815455216268501C60601D
:103EB00020688154AA216268501C60602068815487
:103EC0006168481C606020684654022E3AD138462A
:103ED000FCF7E2F900F0FF0A4FF0000B00216268E6
:103EE000501C6060206881546168481C60602068D4
:103EF00000F801A00AE017F80B106268501C60601F
:103F0000206881540BF1010000F0FF0BD345F2DB78
:103F1000290E6268501C606020688154C5F3074117
:103F20006268501C606020688154C5F30721626894
:103F3000501C6060206881546268501C606020687A
:103F400085540BE0C5F307216268501C606020684F
:103F500081546268501C60602068855400202BE703
:103F60002DE9F84305460E4617469846DDF82090A1
:103F70000020009000242046641C285CA02802D069
:103F80000120BDE8F883A2B26946284602F04AFD46
:103F90000446601C08B90220F3E7601C285C295D18
:103FA00040EA01203880A41C3988481C07F0C2FD73
:103FB0003060306808B90320E3E73A88511C306864
:103FC000FCF737F93A8829193068FCF719F938886D
:103FD0000444285D0106601C285C41EA0041A01CE5
:103FE000285C41EA0020E11C695C0843C9F8000034
:103FF000241DD9F80010481C07F09CFDC8F80000EB
:10400000D8F8000020B9306806F0C6FB0420B8E7F5
:10401000D9F80020511CD8F80000FCF70AF929193A
:10402000D9F80020D8F80000FCF7EAF8D9F8000029
:1040300004440020A5E70146C87870472DE9F843FD
:1040400005460E46174699460024002000908046FB
:104050002046641C285C302802D00120BDE8F8838B
:10406000A2B26946284602F0DDFC0446601C08B98D
:104070000220F3E7601C285C295D40EA0128A41CAB
:1040800008F1010007F056FD3060306808B90320E0
:10409000E4E708F101013068FCF7CBF82919424642
:1040A0003068FCF7ADF8444408F102000099081AA2
:1040B00000900098401C07F03DFD3860386820B93A
:1040C000306806F069FB0420C8E738680099491C8D
:1040D000FCF7AFF829193868009AFCF791F80098B6
:1040E00004440098C9F800000020B7E701460878AA
:1040F0007047000010B5082000F038F800B31148F0
:10410000007878B910201049486108200F490860EC
:1041100001200C49087008200C49086010200A4949
:1041200008610AE007480078012806D108200749FD
:10413000091D0860022003490870082000F008F8F3
:1041400010BD0000EB0000200010014010140140E1
:1041500001490860704700001404014002490968E1
:104160000143014A116070471004014001460020DC
:104170000022074B1B6803EA0102054B14331B683E
:104180000B4013B10AB1012000E00020704700008D
:1041900000040140002123498279002A3AD00A46CE
:1041A000126803689A430B461A600A1D1268036876
:1041B0009A430B1D1A60027911440A6803681A4376
:1041C0000A60184A0832126803689A43154B08338C
:1041D0001A601A1D126803689A43124B0C331A6056
:1041E0004279102A0ED11A1F126803681A430D4B28
:1041F00008331A601A1D126803681A43094B0C33FE
:104200001A600DE00749427911440A6803681A43AD
:104210000A6005E0027911440A6803689A430A605B
:10422000704700000004014008B501213C2002F065
:104230006FFB10208DF8030003208DF8020008208A
:10424000ADF8000069461A4800F030FA1020ADF8C9
:1042500000006946174800F029FA0420ADF8000074
:104260006946134800F022FA2020ADF800006946A4
:10427000104800F01BFA0820ADF8000069460E480F
:1042800000F014FA4FF47F40ADF8000004208DF8E0
:10429000030003208DF802006946084800F006FA82
:1042A000082003491431086003491031086008BD33
:1042B000000801400010014000140140000C0140C2
:1042C00051B18200A2F1C042126842F001038200A3
:1042D000A2F1C042136009E08200A2F1C04212685C
:1042E000034B1A408300A3F1C0431A6070470000DB
:1042F000FEFF0F00D0E901121143C26811430269A9
:1043000011434269114382691143C2691143026A30
:104310001143426A1143826A1143C26A1143026B1C
:10432000114302689200A2F1C0421160816808291D
:104330000BD101688900A1F1C041096841F0400238
:1043400001688900A1F1C0410A60416B0968426BB4
:10435000526841EA0211426B926841EA0221426BC3
:10436000928941EA0241426B128A41EA0251426B50
:10437000127D41EA0261426B926911430268521C4C
:104380009200A2F1C0421160C16AB1F5804F1BD109
:10439000816B0968826B526841EA0211826B9268F4
:1043A00041EA0221826B128A41EA0251826B127D3C
:1043B00041EA0261826B9269114302689200A2F1A4
:1043C000C042C2F8041107E06FF070420168890032
:1043D000A1F1C041C1F804217047000010B5ADF54E
:1043E000825D012206A104A805F0C8FB044602E094
:1043F00004A003F007FE002CFAD10DF5825D10BD7C
:10440000303A00000D0AC7EBB2E5C8EB5344BFA831
:10441000A1A30D0A000000002DE9FC4107460D464E
:104420000026002400200090019008205D490860CB
:1044300010204860402088600020C8604FF48060F1
:104440000861084602F0C4FD1020FFF755F9044644
:1044500014B12046BDE8FC8153480088000451494E
:10446000086037204860402088600020C8604FF412
:1044700080600861084602F0ABFD3720FFF73CF989
:1044800004460CB12046E5E74FF0FF30474908608D
:1044900008204860302088600220C8600020086141
:1044A00001204861084602F011FD00203D490860E6
:1044B00033204860402088600020C8604FF480604E
:1044C0000861084602F084FD3320FFF715F9044621
:1044D0000CB12046BEE70CE04FF4001002F026FDC0
:1044E00038B102F06FFD4DF82600761C012E00D980
:1044F00006E02F48406B40F22A6108400028EBD0CC
:1045000000BF082002F012FD28B1082002F0C6FC0E
:10451000042420469EE7022002F008FD28B1022074
:1045200002F0BCFC0224204694E7202002F0FEFCAE
:1045300028B1202002F0B2FC062420468AE74FF47E
:10454000007002F0F3FC30B14FF4007002F0A6FCF2
:10455000072420467EE740F2FF5002F09FFC0098BF
:104560000006009901F47F4140EA0120009901F41E
:104570007F0140EA1120009940EA116068600198CB
:104580000006019901F47F4140EA0120019901F4FC
:104590007F0140EA1120019940EA1160286020461D
:1045A00058E700009C020020F8000020B002002024
:1045B0000080014010B5044620210D4800F001F9AB
:1045C00050B9012020700B49087003F0BDFC4FF476
:1045D000FA7007F019FA09E02021054800F0F1F817
:1045E000012803D100202070FEF7ECFD10BD000073
:1045F000001801401E01002008B50121402002F0F2
:1046000087F92020ADF8000048208DF803006946A6
:10461000014800F04BF808BD0018014008B5012121
:10462000302002F075F94FF4F850ADF80000032087
:104630008DF8020018208DF803006946094800F043
:1046400035F80420ADF800006946074800F02EF860
:104650000121880202F04CF90121022002F048F900
:1046600008BD0000001001400014014030B50022D8
:104670008B071C0F0F2303FA04F20B4B8C1053F81B
:1046800024309343084C8D1044F8253023468C1079
:1046900053F824308C07240F00FA04F42343024C0F
:1046A0008D1044F8253030BD080001402DE9F0415F
:1046B000024600250026002000230024002791F850
:1046C00003C00CF00F0591F803C00CF0100CBCF106
:1046D000000F03D091F802C04CEA050591F800C024
:1046E000BCF1000F31D0146800202BE04FF0010C1A
:1046F0000CFA00F3B1F800C00CEA03069E4220D188
:1047000083004FF00F0C0CFA03F7BC4305FA03FCCF
:104710004CEA040491F803C0BCF1280F06D14FF015
:10472000010C0CFA00FCC2F814C00AE091F803C0B6
:10473000BCF1480F05D14FF0010C0CFA00FCC2F897
:1047400010C0401C0828D1D31460B1F800C0BCF1DF
:10475000FF0F34DD546800202EE000F1080C4FF00C
:10476000010808FA0CF3B1F800C00CEA03069E42F7
:1047700021D183004FF00F0C0CFA03F7BC4305FA6C
:1047800003FC4CEA040491F803C0BCF1280F05D1E6
:1047900000F1080C08FA0CF8C2F8148091F803C074
:1047A000BCF1480F07D100F1080C4FF0010808FADE
:1047B0000CF8C2F81080401C0828CED35460BDE825
:1047C000F0810246002093680B400BB1012000E00D
:1047D0000020704741617047016170470AB1016173
:1047E00000E04161704700BFFEE7000010B54FF4E4
:1047F000A06001F023F900F067FD01F0E0F9FFF798
:10480000A1F900F041FA03F07DFAFEF7C3FCFEF7D0
:1048100047FD01F02FF806A003F0F4FBFFF7DEFDE3
:10482000FFF77EF8FFF7E8FE05A003F0EBFB10BDF5
:104830007769666920696E6974200D0A00000000BE
:10484000486172647761726520696E6974206F6B6C
:104850000D0A000010B504462CB14FF480510548F4
:10486000FFF7B8FF04E04FF480510248FFF7B4FFB0
:1048700010BD0000001401402DE9F04106460F462E
:1048800014461D462B4622463946304600F022FA91
:1048900004FB05F00249098800F0BDF8BDE8F0818D
:1048A0002E01002001B502E00098401E0090009803
:1048B0000028F9D108BD00002DE9F04F8046894657
:1048C0001646A6F120001FFA80FA1E490968898859
:1048D0001C4A1268D28801FB02F0C11700EB51712B
:1048E000C1F3C7071748006800680AFB070B1548A3
:1048F0000068C3881348006882884946404600F033
:10490000E9F92C2000F03EFB002416E0002510E021
:104910001BF8040080212941084020B10A48008882
:1049200000F034FB03E00948008800F02FFB681C0E
:10493000C5B2082DECDB601CC4B2BC42E6DBBDE8AE
:10494000F08F0000280100202C0100202E01002003
:1049500070B504460D46002624E030461349096828
:104960008988084412490988884205DD00260F48D5
:104970000068C088204484B220460C490968C98870
:1049800008440C490988884201DD002600242A7861
:1049900021463046FFF790FF6D1C04480068808870
:1049A000304486B228780028D7D170BD2801002075
:1049B000200100202201002000B597B0012108024B
:1049C00001F096FF012001900420039080060790DB
:1049D000002002900490059006900890099008200D
:1049E0000A9010200B9000200C900E900F901090C9
:1049F0004FF480501190002012901390149001A851
:104A00001590169008A8FFF775FC01210020FFF70C
:104A100057FC17B000BD10B502460B4600242C20F1
:104A200000F0B0FA00BF03E0184600F0AFFA641CD3
:104A30009442F9D310BD000008B50121602001F0B7
:104A400067FF03208DF8020018208DF803004FF453
:104A50008040ADF8000069465B48FFF727FE4FF441
:104A60000040ADF8000069465748FFF71FFE0120DF
:104A7000ADF8000069465448FFF718FE0220ADF873
:104A8000000069465048FFF711FE8020ADF8000095
:104A900069464E48FFF70AFE4FF48070ADF80000FB
:104AA00069464A48FFF702FE4FF40070ADF8000077
:104AB00069464648FFF7FAFD4FF48060ADF8000004
:104AC00069464248FFF7F2FD4FF40060ADF8000080
:104AD00069463E48FFF7EAFD4FF48050ADF800000C
:104AE00069463A48FFF7E2FD4FF40050ADF8000088
:104AF00069463648FFF7DAFD4FF48040ADF8000014
:104B000069463248FFF7D2FD4FF40040ADF800008F
:104B100069462E48FFF7CAFD4FF48070ADF80000DB
:104B200069462948FFF7C2FD4FF40070ADF8000058
:104B300069462548FFF7BAFD4FF48060ADF80000E4
:104B400069462148FFF7B2FD03208DF802001820C6
:104B50008DF803001020ADF8000069461A48FFF7F1
:104B6000A5FD2020ADF8000069461748FFF79EFD1F
:104B70008020ADF8000069461348FFF797FD4FF419
:104B80000060ADF8000069460F48FFF78FFD102068
:104B90008DF8030003208DF802000220ADF800001C
:104BA00069460A48FFF782FD10208DF803000320B4
:104BB0008DF802004FF48050ADF8000069460248BD
:104BC000FFF774FD08BD000000140140001801400B
:104BD00000B50246072A00DD00BD284802701046D5
:104BE00002EBD0714910A2EB410139B9F020244900
:104BF00008804FF4A0702349088006E04FF4A070AD
:104C00001F490880F0201F490880362000F0BAF9BB
:104C1000082141EA421000F0B9F92A2000F0B2F967
:104C2000002000F0B3F9002000F0B0F91449098821
:104C3000491EC1F3072000F0A9F911490978491E5E
:104C4000C8B200F0A3F92B2000F09CF9002000F07E
:104C50009DF9002000F09AF90A490988491EC1F31C
:104C6000072000F093F907490978491EC8B200F0FF
:104C70008DF92C2000F086F900BFADE7240100205B
:104C8000200100202201002010B5FFF7D5FEFFF71C
:104C900093FE0120FFF7DEFD00F060F900F046F81A
:104CA0000320FFF795FF084800F008FB00214FF4B0
:104CB000784000F0F9FA0548038805480288002189
:104CC0000846FFF7D9FD10BD300100202201002069
:104CD0002001002030B504460D462A2000F052F98C
:104CE000201200F053F9E0B200F050F9A118491E6B
:104CF000C1F30F2000F04AF9A118491EC8B200F014
:104D000045F92B2000F03EF9281200F03FF9E8B2F7
:104D100000F03CF9E918491EC1F30F2000F036F904
:104D2000E918491EC8B200F031F930BD10B5CF20E6
:104D300000F028F9002000F029F9812000F026F980
:104D4000302000F023F9ED2000F01CF9642000F081
:104D50001DF9032000F01AF9122000F017F9812044
:104D600000F014F9E82000F00DF9852000F00EF9AC
:104D7000102000F00BF9782000F008F9CB2000F0AB
:104D800001F9392000F002F92C2000F0FFF8002092
:104D900000F0FCF8342000F0F9F8022000F0F6F8FA
:104DA000F72000F0EFF8202000F0F0F8EA2000F003
:104DB000E9F8002000F0EAF8002000F0E7F8B12060
:104DC00000F0E0F8002000F0E1F81B2000F0DEF831
:104DD000B62000F0D7F80A2000F0D8F8A22000F0A2
:104DE000D5F8C02000F0CEF8352000F0CFF8C12073
:104DF00000F0C8F8112000F0C9F8C52000F0C2F892
:104E0000452000F0C3F8452000F0C0F8C72000F0AE
:104E1000B9F8A22000F0BAF8F22000F0B3F80020B0
:104E200000F0B4F8262000F0ADF8012000F0AEF854
:104E3000E02000F0A7F80F2000F0A8F8262000F0EE
:104E4000A5F8242000F0A2F80B2000F09FF80E2017
:104E500000F09CF8092000F099F8542000F096F832
:104E6000A82000F093F8462000F090F80C2000F005
:104E70008DF8172000F08AF8092000F087F80F203D
:104E800000F084F8072000F081F8002000F07EF8A0
:104E9000E12000F077F8002000F078F8192000F009
:104EA00075F81B2000F072F8042000F06FF8102055
:104EB00000F06CF8072000F069F82A2000F066F88E
:104EC000472000F063F8392000F060F8032000F07C
:104ED0005DF8062000F05AF8062000F057F8302060
:104EE00000F054F8382000F051F80F2000F04EF890
:104EF000362000F047F8C82000F048F82A2000F0DB
:104F000041F8002000F042F8002000F03FF80020B7
:104F100000F03CF8EF2000F039F82B2000F032F8D8
:104F2000002000F033F8002000F030F8012000F0FD
:104F30002DF83F2000F02AF83A2000F023F8552001
:104F400000F024F8112000F01DF80348FFF7AAFC38
:104F5000292000F017F810BDFCBF020010B5022197
:104F60000748FFF737FC40F6FF20FFF79BFC0221C4
:104F70000348FFF731FC40F6FF20FFF793FC10BD1C
:104F8000001801404FF0C041088070470149088077
:104F900070470000000002602DE9F04781468A4614
:104FA00014461D462B46224651464846FFF792FEC0
:104FB0002C20FFF7E7FF002622E000271AE000BFC1
:104FC0004FF000082020104948611048006800F4A4
:104FD0007F482020086148610C480068C0F3072022
:104FE00040EA08082020086100BF4046FFF7CEFFD6
:104FF000781C87B2A5F11400B842E0DC701C86B2C0
:10500000A642DADBBDE8F08700100140080C014041
:105010002DE9F04780464FF4847006F08BFD04467E
:1050200014B971A002F0EEFF4FF4B44006F082FD17
:10503000054615B971A002F0E5FF41F2240006F023
:1050400079FD734908600846006808B104B17DB96C
:1050500070A002F0D7FF204605F09EFB284605F021
:105060009BFB6B48006805F097FB0120BDE8F087CB
:105070000A2241466648006804F0AEFD8246644854
:10508000006804F06BFD022241466148006804F0AC
:10509000A3FD8246BAF1000F7ED1002084F8FC0007
:1050A0004FF484712046FBF7C4F84FF4F070206091
:1050B0004FF4887060600020A06055480068C4F814
:1050C00004012946204606F06BFB204606F0A2FBB1
:1050D00000BF0420564908602020564948610861F5
:1050E00004205349091F0860202052494861086183
:1050F00000BF00264CE04FF0000930E000BF002761
:1051000020204C4948614C48006800F47F4720202B
:105110000861486148480068C0F307200743202021
:10512000086100BF07F47840021254F8EC3F3046A3
:10513000711C8EB21A5407F4FC60C2103046711C08
:105140008EB223681A54F806020E54F8EC39304631
:10515000711C8EB21A5409F101001FFA80F9B9F5D9
:10516000F07FCBDBF434E068401CE060E06854F88A
:10517000F41990FBF1F201FB120048B90026204619
:1051800005F062FFD4F8F810D4F8EC00FBF751F802
:105190006168D4F8000100E017E08842ABDB2046EC
:1051A00006F0C6FA25A002F02DFF1948006804F0A9
:1051B000D5FC204605F0F0FA284605F0EDFA144833
:1051C000006805F0E9FA002050E727A002F01AFF76
:1051D000204605F0E1FA284605F0DEFA0C480068A2
:1051E00005F0DAFA012041E76D616C6C6F632063B2
:1051F000696E666F206661696C6564006D616C6CD8
:105200006F6320627566206661696C64000000004F
:1052100010010020094A5045475F656E636F646561
:105220002F2FC4DAB4E6C9EAC7EBCAA7B0DC2E0058
:105230001408014000100140080C0140094A504583
:10524000475F656E636F64652F2F6A7065675F6681
:10525000696E6973685F636F6D70726573732863DD
:10526000696E666F290000006F70656E2066616967
:105270006C64000070B504460D4629462046FFF7D1
:10528000A0FA012808D100BF29462046FFF799FA65
:105290000128F9D0012070BD0020FCE7014800681A
:1052A0007047000028010020024A1080024A118045
:1052B000704700002C0100202E01002001490860E9
:1052C000704700002801002008B50121082001F0E6
:1052D0001FFB2020ADF8000010208DF803000320F4
:1052E0008DF8020069460F48FFF7E0F90120ADF89C
:1052F000000069460B48FFF7D9F90220ADF800001D
:1053000069460848FFF7D2F920210648FFF764FAFA
:1053100001210448FFF760FA02210248FFF75CFA16
:1053200008BD0000000C014008B50121042001F077
:10533000EFFA102011490860ADF800008DF8030065
:1053400003208DF8020069460C481038FFF7AEF9CB
:105350000121042001F0DCFA4FF4006007490860E5
:10536000ADF8000010208DF8030003208DF8020036
:10537000694602481038FFF799F908BD1008014046
:1053800010B5FFF7D1FF00F001F810BD00B587B0F0
:105390000121042001F0BCFAE020ADF8180018202B
:1053A0008DF81B0003208DF81A0006A91A48FFF794
:1053B0007DF90121080301F0ABFA0121080301F096
:1053C000B7FA00214FF4805001F0B2FA0020ADF896
:1053D00004004FF48270ADF806000020ADF808001C
:1053E000ADF80A00ADF80C004FF40070ADF80E00F7
:1053F0001820ADF810000020ADF812000720ADF81D
:10540000140001A9054802F099FB0121034802F0AC
:1054100089FB07B000BD00000008014000300140DA
:1054200010B50446074800884FF6C7710840054983
:10543000088008460088204308800121014802F0C6
:1054400071FB10BD0030014018B11021034A1160FA
:1054500003E01021014A121D11607047100801403D
:1054600020B14FF40061044A116004E04FF4006180
:10547000014A121D116070471008014010B5044622
:10548000204606F0E0FF10BD10B50020FFF7DCFF5E
:10549000012000F099F80020FFF7E2FF052000F05E
:1054A00093F80120FFF7DCFF4FF4967000F08CF8C2
:1054B0000120FFF7C9FF40F2ED1000F085F810BDA4
:1054C00010B594B0364C00201390FF2012900020AD
:1054D0000E900F90109011900490FFF7D5FF0820C8
:1054E000FFF79EFF2F4C012000F06EF804AA214622
:1054F0002D48FBF7EFFB08B900BFFEE701A8FBF75B
:10550000EFFD08B900BFFEE7284803900398FBF7BA
:1055100011FE0290DDE90201884206D2DDE90210A7
:10552000401A052801D900BFFEE704AA0021032084
:10553000FCF769FB10B9002014B010BD04A913A832
:10554000FBF701FD08B90020F6E79DF84C000128A3
:1055500003D09DF84C00032820D104A81423002276
:1055600013A1009015A0FBF7D1FF08B90020E3E7D5
:105570000A210EA800F03AF808B90020DCE704A9D7
:1055800012A8FBF718FD08B90020D5E704AA05A961
:1055900006A8FCF7D7FA08B90020CDE70120CBE731
:1055A000005A620280A8120100300140A08601006A
:1055B0003233363232303333000000006B696E67AD
:1055C0007374656E0000000070B5044600250AE0A3
:1055D000002604E0FA20FFF751FF701C86B2042E6B
:1055E000F8DB681C85B2A542F2DB70BDF8B5064653
:1055F0000C4600200090002512E069463046FBF77B
:1056000017FD012805D10BA13046FAF74CFE00B179
:1056100008E04FF47A70FFF7D7FF00BF681C85B22F
:10562000AC42EADC00BFAC4201DC0020F8BD012046
:10563000FCE70000302E302E302E300010B58021D7
:105640000348FAF7F6FD00200249088010BD00006B
:10565000E4690020C001002038B505460024FBF7AE
:1056600030FD60B10748084B4FF47A7280210090FA
:105670000648FBF73BFF06490880044838BD002078
:10568000FCE70000CC010020CE010020E4690020EE
:10569000C00100201FB503A92448FBF78CFCBDF80E
:1056A0000C0010B922A002F0ADFC03A8002100916B
:1056B0000B46234ACDE9011022480078FBF773FD21
:1056C000BDF80C0010B920A002F09CFC174800782F
:1056D000062818D2DFE800F00317070B0F131EA0EF
:1056E00002F090FC0FE01FA002F08CFC0BE023A066
:1056F00002F088FC07E028A002F084FC03E02CA064
:1057000002F080FC00BF00BF08480078052802D0E6
:10571000012004B010BD0A480078032804D027A057
:1057200002F070FC0220F4E70020F2E7CF01002035
:1057300073746120636865636B206661696C6400E3
:10574000D0010020CE01002074637020636865637F
:105750006B206661696C6400C3BBD3D0C1ACBDD3A0
:105760000D0A0000C1ACBDD3CAA7B0DCA3ACC3DC3A
:10577000C2EBB4EDCEF30D0A00000000C1ACBDD306
:10578000CAA7B0DCA3ACC3BBD3D0D6B8B6A87373DA
:1057900069640D0A00000000C1ACBDD3CAA7B0DC2B
:1057A000A3ACC6E4CBFBD4ADD2F20D0A00000000DE
:1057B000C1ACBDD3D5FDB3A30D0A0000746370C1A5
:1057C000B4BDD3B6AACAA7003EB50446012C0BD17E
:1057D00006E015A002F016FC4FF4FA7006F014F97A
:1057E000FFF76EFE0028F4D0022C17D106E04FF42C
:1057F000FA7006F009F910A002F004FC1348142115
:10580000134A12784FF45B73CDE90021029011A284
:1058100050210120FCF746FA0028E8D011A11448D5
:1058200002F030FB3EBD0000D5FDD4DAD6D8C1ACC5
:10583000776966690D0A0000D5FDD4DAD6D8C1AC07
:10584000B7FECEF1C6F70D0A00000000CC01002023
:10585000CE0100203138332E3233302E34302E3307
:1058600039000000D6D8D0C2C1ACBDD30D0A0000AB
:10587000003801400EB5FFF783FD15E020203449C4
:1058800008600120091F0860022008604FF4FA70C8
:1058900006F0BAF820202E49091F08600120091DD2
:1058A00008600220091F0860FFF70AFE0028E5D003
:1058B00028A002F0A7FB15E0202025490860012060
:1058C000091F0860022008604FF4FA7006F09CF887
:1058D00020201F49091F08600120091D08600220BF
:1058E000091F08601E4A04211E480078FBF7BBFA16
:1058F0000028E1D01CA002F085FB18E0202014490C
:1059000008600120091F0860022008604FF4FA7047
:1059100006F07AF818A002F075FB20200C49091F48
:1059200008600120091D08600220091F08600C485A
:1059300014210C4A12784FF45B73CDE900210290D8
:1059400012A250210120FCF7ADF90028D6D00EBDDF
:10595000140C01407769666920696E69740D0A004C
:10596000CC010020CE0100207769666920636F6E4C
:105970006669670D0A0000007769666920636F6ECB
:105980006E656374696E670D0A0000003138332E4E
:105990003233302E34302E333900000000BFFEE7A2
:1059A000704708B54FF4C06000F048F831208DF81A
:1059B000000000208DF801008DF8020001208DF814
:1059C0000300684600F002F808BD000070B5002131
:1059D00000230F22C47804B3154C246804F4E06457
:1059E000C4F5E064210AC1F10403CA40447804FA12
:1059F00003F184781440214309010E4C0678A15527
:105A0000047804F01F050124AC4005786D11AD0049
:105A100005F1E025C5F8004109E0047804F01F0510
:105A20000124AC40044D0678761145F8264070BD3F
:105A30000CED00E000E400E080E100E002490143F9
:105A4000024A1160704700000000FA050CED00E00A
:105A5000002500BF002443E02248007828BB681CD2
:105A600080B20546022802DA1F48007930B10025CD
:105A70001EA002F0C7FA1C4800F0ECFD1E4800789A
:105A8000012809D100BF06F037FD00F0F3FE002029
:105A90001949087006F042FD601C80B204461428C3
:105AA0001ADB0024FDF770FC16E00E480078FFF7C3
:105AB0008BFE03E04FF4FA7005F0A6FF00F02EFA1B
:105AC0000028F7D10749087020200C490860012000
:105AD00008600220091D08604FF47A7006F05CFD32
