:020000040800F2
:10000000E0ED0020DD01000895200008FB1C000841
:1000100005200008390C0008A94400080000000071
:100020000000000000000000000000004501000882
:10003000990E000800000000890100088D410008A9
:10004000F7010008F7010008F7010008F7010008B0
:10005000F7010008F7010008F7010008F7010008A0
:10006000F701000841170008F7010008F701000830
:10007000F7010008F7010008F7010008F701000880
:10008000F7010008F7010008F7010008F701000870
:10009000F7010008F7010008F7010008F701000860
:1000A000F7010008F7010008F7010008F701000850
:1000B000F7010008F7010008F7010008F701000840
:1000C000F7010008F7010008F7010008F701000830
:1000D000F7010008F7010008F701000819420008BD
:1000E000F7010008F7010008F7010008F701000810
:1000F000F7010008F7010008F7010008F701000800
:10010000F7010008ED340008F7010008F7010008C6
:10011000F7010008F7010008F7010008F7010008DF
:10012000F7010008F7010008F7010008F7010008CF
:10013000DFF80CD000F0F0FC00480047357F0008E5
:10014000E0ED0020224B19680868B0E8F00F80F35A
:100150000988BFF36F8F4FF0000080F311884EF0D5
:100160000D0E70470000000006480068006880F32C
:10017000088862B661B6BFF34F8FBFF36F8F00DFA1
:1001800000BF00BF08ED00E0EFF30980BFF36F8F01
:100190000F4B1A6820E9F00F106008B54FF005000A
:1001A00080F31188BFF34F8FBFF36F8F08F038FDD6
:1001B0004FF0000080F31188BDE808401968086816
:1001C000B0E8F00F80F30988BFF36F8F704700BF6E
:1001D00024010020EFF305807047000006488047A7
:1001E00006480047FEE7FEE7FEE7FEE7FEE7FEE71C
:1001F000FEE7FEE7FEE7FEE7A14100083101000847
:1002000040EA01039B0703D009E008C9121F08C098
:10021000042AFAD203E011F8013B00F8013B521E18
:10022000F9D27047D2B201E000F8012B491EFBD28F
:1002300070470022F6E710B513460A4604461946F1
:10024000FFF7F0FF204610BD421E12F8013F002BC1
:10025000FBD111F8013B02F8013B002BF9D17047AB
:1002600030B505462A460B4612F8010B13F8014B30
:1002700008B1A042F8D01CB1002802D06D1CF1E7F3
:10028000284630BDCAB2401E10F8011F8A4202D073
:100290000029F9D100207047421C10F8011B0029E9
:1002A000FBD1801A704710B5044600E0401C03786B
:1002B000002BFBD100E0401C521E04D311F8013B7F
:1002C0000370002BF7D100210170204610BD70B5DE
:1002D000064604F015FA046805460A220021304655
:1002E00000F0ACFA2C6070BDF0B480EA0102D40FCB
:1002F0004200B2EB410F02D20246084611464A00C4
:1003000042D0C30DDDB2C1F3C752AD1A202D35DA8C
:10031000C1F3160141F4000204B15242C5F12006B6
:1003200002FA06F12A411044B3EBD05F23D0C4B1E6
:10033000012DA0EBC35009DCF0BC4FF0004202EAF3
:10034000C352DBB200F5000000F0B9BA400000F182
:10035000807000EBC350A0F1807040EAD17049007A
:1003600009E0490841EAC071A0EBC35000F5000064
:10037000400800EBC350F0BC00F098BA6142012283
:1003800002EB4101001BF6E7F0BC704781F0004131
:10039000AAE780F00040A7E780EA010210B502F06A
:1003A0000043400022D04A001FD0010E01EB126131
:1003B000C0F35600C2F3560240F4000042F40002BB
:1003C000A0FB022000047F39140400D0401C50EA36
:1003D000124001D44000491EC2B20C0604EBD010FA
:1003E000401C4008802A02D003E0002010BD20F00D
:1003F0000100002900DA0020184310BD30B480EA63
:10040000010202F0004530F0004221F0004013D01C
:1004100090B1C30DD40DC2F31601C0F31600E41A57
:1004200041F4000140F400027D34914201D3641C88
:1004300000E04900002C02DA30BC002070474FF485
:1004400000000023914201D3891A034340084FEA78
:100450004101F7D151B1914202D14FF0004105E085
:1004600002D24FF0010101E06FF0010103EBC45033
:10047000284430BC00F01ABA2DE9FE4F804681EACC
:100480000300C00F0C46009021F0004123F000450E
:10049000B8EB0200A94105D24046214690461C46D1
:1004A0000B46024623F00040104347D0270DC7F308
:1004B0000A00C3F30A510290401A019040286BDAF7
:1004C000C3F3130040F4801B0098924620B1002330
:1004D000D2EB030A63EB0B0B01985946C0F14002C3
:1004E000504600F07AF906460D4650465946019AA4
:1004F00000F092F910EB08006141002487EA1152E4
:1005000084EAE7731A4340D0009A62B3019A012A41
:100510004FEA075215DC001B61EB02014FF000426D
:1005200002EA0752CDE90042001C41F58011324633
:100530002B4600F001FA03B0BDE8F08F404621469B
:10054000F9E7001B61EB0201001C41F58013001864
:100550005B412018A2F5001747EB030140EAD57074
:10056000B6196D4111E06D084FEA360645EAC075CF
:100570004FEA0752001B61EB0201001C41F580119C
:1005800049084FEA30000019514132462B4603B06A
:10059000BDE8F04F00F0C1B90098012240000023EF
:1005A000D0EB020263EBE073009821464FEAE0745F
:1005B000B8EB000061EB0401E9E783F000435BE77F
:1005C00081F0004158E72DE9F04D81EA030404F081
:1005D000004B21F0004514464FF0000A23F0004183
:1005E00050EA050220D054EA01021DD0C5F30A5793
:1005F0000246C5F31303C1F31300C1F30A5640F4D6
:10060000801543F48013A7EB0608101BD64608F2AA
:10061000FD3873EB050002D308F1010801E09218E0
:100620005B41B8F1000F03DA00200146BDE8F08D10
:1006300000204FF48011064684460EE0171B73EB32
:10064000050705D3121B63EB050306434CEA010CB7
:1006500049084FEA300092185B4150EA0107EDD19A
:1006600052EA030012D082EA040083EA050108433B
:1006700005D0101BAB4106D20122002306E0002268
:100680004FF0004302E06FF0010253101AEB060036
:100690004CEB085110EB0A0041EB0B01BDE8F04DAB
:1006A00000F03BB9C10F80EAE0700844CA07962306
:1006B000002100F004B996230022114600F0FFB893
:1006C00020F00040C10DC0F3160040F400007F2967
:1006D00001DA00207047962903DCC1F19601C84079
:1006E000704796398840704770B5C1F30A5201F0DF
:1006F00000450024C1F3130140F2FF3341F480119F
:100700009A4201DA002070BD40F233439A42A2F2CD
:10071000334203DC524200F06FF800E090402C437B
:10072000F1D0404270BD00F0004230F000400AD0ED
:10073000C10D01F56071C0F3160042EA0151C20813
:1007400040071143704700200146704730B50B4603
:10075000014600202022012409E021FA02F59D42F1
:1007600005D303FA02F5491B04FA02F52844151EC5
:10077000A2F10102F1DC30BD2DE9F05F0546002059
:1007800092469B4688460646814640241BE0284602
:1007900041464746224600F02FF853465A46C01AB3
:1007A000914110D311461846224600F016F82D1A32
:1007B00067EB01084F4622460120002100F00DF8AA
:1007C00017EB00094E41201EA4F10104DFDC48466E
:1007D00031462A464346BDE8F09F202A04DB203AF2
:1007E00000FA02F1002070479140C2F1200320FA84
:1007F00003F3194390407047202A04DB203A21FA82
:1008000002F00021704721FA02F3D040C2F1200229
:100810009140084319467047202A06DBCB17203A3F
:1008200041FA02F043EAE07306E041FA02F3D040F5
:10083000C2F1200291400843194670472DE9F04764
:1008400091460F4680460446002614F8015B2DB100
:1008500000F074F90068405DC007F6D12B2D02D07E
:100860002D2D18D0641E4A463946204600F06AF9FC
:1008700027B13968A14201D1C7F8008071054FF056
:1008800002040BD54042002803DD03F039FF046069
:10089000A007BDE8F08746F48066E4E70028F8DAB0
:1008A00003F02EFF04606FF00040F2E70029A8BFBC
:1008B0007047401C490008BF20F00100704710B489
:1008C000B0FA80FC00FA0CF050EA010404BF10BC3E
:1008D000704749B1CCF1200421FA04F411FA0CF16B
:1008E00018BF012121430843A3EB0C01CB1D4FEAA4
:1008F00000614FEA102042BF002010BC704700EB9F
:10090000C35010440029A4BF10BC7047401C4900CC
:1009100008BF20F0010010BC704710B5141E73F121
:10092000000408DA401C41F1000192185B411A43AF
:1009300001D120F0010010BD2DE9F04D92469B46FB
:1009400011B1B1FA81F202E0B0FA80F220329046A1
:10095000FFF743FF04460F4640EA0A0041EA0B0155
:1009600053465A46084313D0114653EA010019D0A2
:10097000C8F140025046FFF73FFF05460E4650467D
:1009800059464246FFF729FF084305D0012004E0FD
:1009900020463946BDE8F08D0020054346EAE07662
:1009A0002C4337430A986305E40AA0EB08000022B1
:1009B000FD0A44EA47540A3002D500200146E9E71F
:1009C000010510196941DDE9084500196941BDE8D3
:1009D000F04DA2E72DE9FE4F81EA030404F0004444
:1009E00021F0004100944FF0000B23F0004350EA47
:1009F00001045ED052EA03045BD0C3F30A54C1F38E
:100A00000A552C44A4F2F3340194A0FB0254C1F320
:100A1000130141F48011C3F3130343F4801301FB6A
:100A2000024400FB034E840A970A44EA815447EAD1
:100A30008357A4FB076802958D0A05FB07854FEADB
:100A4000932C04FB0C542705029D4FEA065847EAF5
:100A50001637B5EB08056EEB070C870E920E47EACA
:100A6000811742EA8312A7FB0201B6EB0B0164EB8C
:100A700000042B0D43EA0C335E1844EB1C50DA469D
:100A80005146E7FB0201C5F313044FEA0B3343EA77
:100A900014534FEA0432019C43EA0603A4F10C0408
:100AA0000294009CCDE900B4FFF746FF03B0BDE817
:100AB000F08F00200146F9E7C1F30A52C1F3130198
:100AC00040F2FF3341F480119A4202DA00200146DD
:100AD000704740F233439A42A2F2334202DC524260
:100AE000FFF78ABEFFF779BE30B5041E71F100042E
:100AF00004DB4FF00044404264EB0101141E73F12B
:100B0000000405DB1C464FF00043524263EB040334
:100B1000994208BF904230BD064C074D06E0E068A0
:100B200040F0010394E8070098471034AC42F6D334
:100B3000FFF702FB449C0008649C000800487047D3
:100B4000409C00082DE9F05F82460078002715469A
:100B50008B460AF10104B946302801D09DB113E05B
:100B600014F8010B0127782803D0582801D045B18B
:100B70000AE00DB1102D07D10027102514F8010B44
:100B800002E0082500E00A250026B0460EE005FB3D
:100B9000080005FB06F1012701EB10461FFA80F85B
:100BA000B6F5803F00D3B94614F8010B294600F092
:100BB00018F80028EBDABBF1000F05D00FB1641E66
:100BC00000E05446CBF80040B9F1000F06D003F026
:100BD00097FD02210160C81EBDE8F09F48EA06406B
:100BE000FAE73A2800D2303820F02002412A01D317
:100BF000A2F13700884201D34FF0FF30704730B583
:100C00008C1810F8012B12F00F0301D110F8013BE2
:100C1000120906D110F8012B03E010F8015B01F86E
:100C2000015B5B1EF9D101E001F8013B521EFBD1D3
:100C3000A142E6D3002030BD00BFFEE770B500251D
:100C40004FF4803400E0641E24B1802002F02EFCBA
:100C50000028F8D014B90325284670BD40F2FF5093
:100C600002F0DCFB2846F8E7014600BF0748406B6E
:100C700000F045000028F9D040F2FF50034A90638D
:100C80001046406908221040C0B270470080014001
:100C900070B500251048446B01E00F48446B04F028
:100CA00045000028F9D004F0040028B103250420F1
:100CB00002F0B4FB284670BD04F0010028B1012504
:100CC000012002F0ABFB2846F5E740F2FF5002F0AE
:100CD000A5FB2846EFE700000080014070B5002525
:100CE0000B48446B01E00A48446B04F045000028BF
:100CF000F9D004F0040028B10325042002F08EFB93
:100D0000284670BD40F2FF5002F088FB2846F8E705
:100D1000008001402DE9F04106460F464FF00008E3
:100D20002248456B01E02148456B05F0450000284D
:100D3000F9D005F0040038B14FF00308042002F0A8
:100D40006DFB4046BDE8F08105F0010030B14FF089
:100D50000108012002F062FB4046F3E702F0A0FB2D
:100D6000B04203D04FF010084046EBE740F2FF508E
:100D700002F054FB002002F0ADFB044604F4604096
:100D800018B9200C38804046DCE704F4005008B164
:100D90001320D7E704F4804008B11020D2E704F410
:100DA000004008B10F20CDE74046CBE7008001406E
:100DB00070B500264FF480350F48446B02E06D1E7D
:100DC0000D48446B04F0450008B9002DF7D115B16A
:100DD00004F0040028B10326042002F01FFB304673
:100DE00070BD04F0400028B10026402002F016FB40
:100DF0003046F5E73046F3E70080014000F08051CF
:100E000011B10349086001E00249486070470000E1
:100E1000040402400000024021B1026842F00102D5
:100E2000026004E002684FF6FE731A4002607047E9
:100E300001460020002201F0805313B1054B1A68CF
:100E400001E0054B1A6802EA01030BB1012000E042
:100E500000207047000402400000024010B500224C
:100E6000026847F6F0739A430C6A8B6823430C6957
:100E700023434C6923438C692343CC6923434C6A45
:100E800023438C6A23431A430260CB6843600B6898
:100E900083604B68C36010BD704710B50446207B6B
:100EA000012802D1206805F079FF002020606060F1
:100EB000A060207310BD70B504460E460025206862
:100EC00098B901202073304607F0FCF820602068B4
:100ED000E0B100206060A66003E000202168485572
:100EE0006D1CA068A842F8D810E00220207303E02F
:100EF0000020216848556D1CA068A842F8D8002041
:100F00006060A068B04201D20020206070BD2DE971
:100F1000F04780460E4691461D46089C70190DB15B
:100F2000062100E002214718791D2046FFF7C3FF84
:100F3000206810B90120BDE8F087B0216268501C1C
:100F4000606020688154A1888AB23946206803F025
:100F500085FB61680844606031126268501C606003
:100F6000206881546268501C606020688654D4E90F
:100F70000012881832464146FFF742F96068304453
:100F8000606015B3290E6268501C6060206881544F
:100F9000C5F307416268501C606020688154C5F346
:100FA00007216268501C6060206881546268501C90
:100FB000606020688554D4E9001288182A464946A2
:100FC000FFF71EF96068284460600020B3E7000066
:100FD0002DE9F0478046894617461C464046FFF7F4
:100FE0005BF9C5B24846FFF757F9C6B2382120462B
:100FF000FFF761FF206810B90120BDE8F0871020DD
:10100000216808706068401C606005F10D00304484
:10101000216848706068401C60600020216888700A
:1010200003202168C8706068801C60602168081D0A
:10103000032221A1FFF737F96068C01C606001201E
:101040002168C8716068401C606040202168087297
:101050006068401C6060380A2168487221688F729D
:101060006068801C606000202168C87221680D7370
:101070006068801C6060216801F10D002A464146CD
:10108000FFF711F9606828446060002105F10D0048
:1010900022681154401C226816546068801C6060ED
:1010A00021680F31481932464946FFF7FCF860685D
:1010B000304460600020A0E74544500010B504466D
:1010C00002212046FFF7F7FE206808B9012010BD75
:1010D000C0216268501C60602068815400216268F1
:1010E000501C6060206881540020F0E72DE9F84F23
:1010F00081460D4617461E460A9C00200090484631
:10110000FFF7CAF800F0FF08022E03D117B901203B
:10111000BDE8F88F022E08D13846FFF7BDF88246A9
:1011200051462046FFF7C7FE04E005F118012046AE
:10113000FFF7C1FE206808B90220E9E78021626854
:10114000501C606020688154B9F1000F3ED0022E1F
:1011500006D13846FFF7A0F80C302844009003E091
:1011600005F1080040440090A1888AB220680099E7
:1011700003F074FA616808446060C0216268501C22
:1011800060602068815400216268501C60602068A3
:1011900081546168481C6060206800F80180D4E9CF
:1011A0000012881842464946FFF77DF860684044BF
:1011B000606055216268501C606020688154AA21DB
:1011C0006268501C60602068815425E0022E06D1C0
:1011D0003846FFF761F80A302844009001E0A81D66
:1011E0000090A1888AB22068009903F037FA6168FC
:1011F0000844606040216268501C6060206881542F
:1012000055216268501C606020688154AA21626880
:10121000501C6060206881546168481C60602068D0
:101220004654022E3AD13846FFF736F800F0FF0A4E
:101230004FF0000B00216268501C606020688154F0
:101240006168481C6060206800F801A00AE017F897
:101250000B106268501C6060206881540BF1010023
:1012600000F0FF0BD345F2DB290E6268501C606072
:1012700020688154C5F307416268501C6060206893
:101280008154C5F307216268501C60602068815456
:101290006268501C6060206885540BE0C5F307212C
:1012A0006268501C6060206881546268501C6060F5
:1012B0002068855400202BE72DE9F84305460E46AB
:1012C00017469846DDF82090002000900024204624
:1012D000641C285CA02802D00120BDE8F883A2B2DB
:1012E0006946284601F062FE0446601C08B90220E7
:1012F000F3E7601C285C295D40EA01203880A41CCB
:101300003988481C06F0DEFE3060306808B90320DA
:10131000E3E73A88511C3068FEF78BFF3A882919B9
:101320003068FEF76DFF38880444285D0106601CB4
:10133000285C41EA0041A01C285C41EA0020E11C35
:10134000695C0843C9F80000241DD9F80010481C46
:1013500006F0B8FEC8F80000D8F8000020B93068E0
:1013600005F01CFD0420B8E7D9F80020511CD8F87E
:101370000000FEF75EFF2919D9F80020D8F8000018
:10138000FEF73EFFD9F8000004440020A5E701461F
:10139000C87870472DE9F84305460E46174699462A
:1013A00000240020009080462046641C285C3028E1
:1013B00002D00120BDE8F883A2B26946284601F0B8
:1013C000F5FD0446601C08B90220F3E7601C285CA8
:1013D000295D40EA0128A41C08F1010006F072FE14
:1013E0003060306808B90320E4E708F10101306893
:1013F000FEF71FFF291942463068FEF701FF4444FB
:1014000008F102000099081A00900098401C06F0AC
:1014100059FE3860386820B9306805F0BFFC0420F8
:10142000C8E738680099491CFEF703FF2919386896
:10143000009AFEF7E5FE009804440098C9F8000001
:101440000020B7E7014608787047000010B54FF458
:1014500080610348FEF7EDFE00200249088010BDC0
:10146000C0120020F400002070B5054600241AE0E8
:1014700000F04CF910E00FA10F48FEF7F1FE044612
:1014800054B13A212046FEF7FDFE044614B1641C17
:10149000204670BD0020FCE700F038F90028EAD0B3
:1014A000052006F03BFD281EA5F101018DB2DFD11C
:1014B00000BFEEE749504400C012002010B50121E2
:1014C000202001F0F9FCFFF7C1FF2FA1304803F005
:1014D00049F803E04FF4FA7006F020FD2DA12EA08C
:1014E00000F0C4F80028F5D12DA1294803F03AF8FE
:1014F00003E04FF4FA7006F011FD26A12BA000F0D6
:10150000B5F80028F5D120A1214803F02BF803E01D
:101510004FF4FA7006F002FD1EA128A000F0A6F814
:101520000028F5D128A11A4803F01CF803E04FF475
:10153000FA7006F0F3FC17A126A000F097F8002837
:10154000F5D12CA1124803F00DF803E04FF4FA7026
:1015500006F0E4FC0FA12BA000F088F80028F5D1DC
:101560002CA10B4802F0FEFF03E04FF4FA7006F0E6
:10157000D5FC2CA12DA000F079F80028F5D135A1DB
:10158000034802F0EFFF10BD312E2041540D0A0038
:10159000003801404F4B000041540D0A000000008C
:1015A000322E2043574D4F44450D0A0041542B43E2
:1015B000574D4F44453D310D0A00000041542B5218
:1015C00053540D0A00000000332E2043574A415067
:1015D0000D0A000041542B43574A41503D226B6B8A
:1015E0006B222C22373839363332313435220D0A0A
:1015F00000000000332E204349504D4F44450D0A52
:101600000000000041542B4349504D4F44453D30AC
:101610000D0A0000342E2043495053544152540DBA
:101620000A000000434F4E4E4543540041542B43A3
:10163000495053544152543D22544350222C22319C
:1016400038332E3233302E34302E3339222C383783
:10165000360D0A00352E2045535038323636204993
:101660006E6974204F4B0D0A000000002DE9F04117
:1016700004460D46C8262046FEF70EFE87B23A46BF
:1016800021460E4802F092FF10E000F03FF850B9FA
:1016900029460B48FEF7E4FD10B10020BDE8F081BB
:1016A000074802F0F3FF0A2006F038FC301EA6F1CE
:1016B0000101CEB2E9D10120F0E70000004800406E
:1016C000C012002030B589B004460D46FFF7BEFEBB
:1016D0002A4608A101A802F0E9FF0AA101A8FFF724
:1016E000C5FF20B92A462146074802F05FFF09B02E
:1016F00030BD000041542B43495053454E443D25D5
:10170000640D0A003E000000004800400A480088BE
:1017100008B90120704708480088084909888842AC
:1017200003D1002004490880F4E7034800880349F6
:1017300008800120EEE70000F4000020F600002001
:1017400010B5082000F038F800B31148007878B9D7
:1017500010201049486108200F49086001200C49F9
:10176000087008200C49086010200A4908610AE046
:1017700007480078012806D108200749091D08609C
:10178000022003490870082000F008F810BD00008E
:10179000D7000020001001401014014001490860EA
:1017A0007047000014040140024909680143014ADE
:1017B0001160704710040140014600200022074BD1
:1017C0001B6803EA0102054B14331B680B4013B17D
:1017D0000AB1012000E00020704700000004014031
:1017E000002123498279002A3AD00A461268036808
:1017F0009A430B461A600A1D126803689A430B1D30
:101800001A60027911440A6803681A430A60184A88
:101810000832126803689A43154B08331A601A1D80
:10182000126803689A43124B0C331A604279102AEB
:101830000ED11A1F126803681A430D4B08331A6041
:101840001A1D126803681A43094B0C331A600DE025
:101850000749427911440A6803681A430A6005E09F
:10186000027911440A6803689A430A6070470000CD
:101870000004014008B501213C2001F01DFB1020AF
:101880008DF8030003208DF802000820ADF8000059
:1018900069461A4800F050F91020ADF8000069467A
:1018A000174800F049F90420ADF8000069461348D4
:1018B00000F042F92020ADF800006946104800F021
:1018C0003BF90820ADF8000069460E4800F034F9F5
:1018D0004FF47F40ADF8000004208DF80300032092
:1018E0008DF802006946084800F026F908200349EF
:1018F0001431086003491031086008BD0008014038
:101900000010014000140140000C01402DE9FC4191
:1019100007460D4600260024002000900190082074
:101920005D49086010204860402088600020C86041
:101930004FF480600861084601F00AFE1020FFF7AE
:1019400093F9044614B12046BDE8FC815348008851
:10195000000451490860372048604020886000201A
:10196000C8604FF480600861084601F0F1FD37203F
:10197000FFF77AF904460CB12046E5E74FF0FF3057
:101980004749086008204860302088600220C8600D
:101990000020086101204861084601F057FD002041
:1019A0003D49086033204860402088600020C860BE
:1019B0004FF480600861084601F0CAFD3320FFF74C
:1019C00053F904460CB12046BEE70CE04FF400107A
:1019D00001F06CFD38B101F0B5FD4DF82600761C24
:1019E000012E00D906E02F48406B40F22A610840E2
:1019F0000028EBD000BF082001F058FD28B10820D6
:101A000001F00CFD042420469EE7022001F04EFD6B
:101A100028B1022001F002FD0224204694E7202094
:101A200001F044FD28B1202001F0F8FC06242046F6
:101A30008AE74FF4007001F039FD30B14FF40070C7
:101A400001F0ECFC072420467EE740F2FF5001F055
:101A5000E5FC00980006009901F47F4140EA01206E
:101A6000009901F47F0140EA1120009940EA1160D9
:101A7000686001980006019901F47F4140EA012065
:101A8000019901F47F0140EA1120019940EA1160B7
:101A90002860204658E7000094120020E40000204F
:101AA000A81200200080014008B50121302001F07B
:101AB00003FA4FF4F850ADF8000003208DF802004F
:101AC00018208DF803006946094800F035F8042015
:101AD000ADF800006946074800F02EF801218802A1
:101AE00001F0CAF90121022001F0C6F908BD000089
:101AF000001001400014014030B500228B071C0F7C
:101B00000F2303FA04F20B4B8C1053F82430934349
:101B1000084C8D1044F8253023468C1053F824309F
:101B20008C07240F00FA04F42343024C8D1044F870
:101B3000253030BD080001402DE9F0410246002566
:101B40000026002000230024002791F803C00CF099
:101B50000F0591F803C00CF0100CBCF1000F03D07E
:101B600091F802C04CEA050591F800C0BCF1000FE5
:101B700031D0146800202BE04FF0010C0CFA00F378
:101B8000B1F800C00CEA03069E4220D183004FF05A
:101B90000F0C0CFA03F7BC4305FA03FC4CEA0404EF
:101BA00091F803C0BCF1280F06D14FF0010C0CFADC
:101BB00000FCC2F814C00AE091F803C0BCF1480F61
:101BC00005D14FF0010C0CFA00FCC2F810C0401C0B
:101BD0000828D1D31460B1F800C0BCF1FF0F34DD88
:101BE000546800202EE000F1080C4FF0010808FABC
:101BF0000CF3B1F800C00CEA03069E4221D1830029
:101C00004FF00F0C0CFA03F7BC4305FA03FC4CEA47
:101C1000040491F803C0BCF1280F05D100F1080CB1
:101C200008FA0CF8C2F8148091F803C0BCF1480F10
:101C300007D100F1080C4FF0010808FA0CF8C2F8BF
:101C40001080401C0828CED35460BDE8F08100000D
:101C5000F0B50A46002300240021002500F00046CC
:101C6000B6F1004F02D11D4EF16901E01B4E7168C3
:101C7000C0F3034583B200F44016B6F5401F08D107
:101C800021F07061154E766826F07066134F7E6005
:101C900012E000F48016B6F5801F06D1032606FA7E
:101CA00005F4A14341F0706106E0460D360103FAE8
:101CB00006F6B14341F0706122B1460D360103FAD8
:101CC00006F6314300F00046B6F1004F02D1034E54
:101CD000F16101E0014E7160F0BD000000000140C3
:101CE0000246002093680B400BB1012000E0002069
:101CF0007047416170470161704700BFFEE7000017
:101D000010B54FF4A06000F013FA02F0C1FA00F031
:101D100049F900F0B2FA4FF4E13002F0C7FBFFF7E7
:101D2000CDFB02A002F0B2FC10BD0000486172645D
:101D30007761726520696E6974206F6B0D0A00000F
:101D40002DE9F04780464FF4847006F0BBF9044655
:101D500014B971A002F09AFC4FF4705006F0B2F979
:101D6000054615B971A002F091FC41F2240006F07D
:101D7000A9F9734908600846006808B104B17DB943
:101D800070A002F083FC204605F008F8284605F014
:101D900005F86B48006805F001F80120BDE8F08700
:101DA0000A2241466648006804F018FA82466448F0
:101DB000006804F0D5F9022241466148006804F049
:101DC0000DFA8246BAF1000F7ED1002084F8FC00A3
:101DD0004FF484712046FEF72CFA4FF4A070206077
:101DE000F02060600020A06055480068C4F804013D
:101DF0002946204605F05EFF204605F095FF00BF0E
:101E00000420574908602020564948610861042091
:101E10005349091F0860202052494861086100BFEA
:101E200000264CE04FF0000930E000BF00272020E2
:101E30004C4948614C48006800F47F472020086105
:101E4000486149480068C0F3072007432020086123
:101E500000BF07F47840021254F8EC3F3046711C82
:101E60008EB21A5407F4FC60C2103046711C8EB258
:101E700023681A54F806020E54F8EC393046711CE7
:101E80008EB21A5409F101001FFA80F9B9F5A07F4A
:101E9000CBDBF434E068401CE060E06854F8F419EF
:101EA00090FBF1F201FB120048B90026204605F034
:101EB00055FBD4F8F810D4F8EC00FEF7BAF96168D5
:101EC000D4F80001884200E016E0ABDB204605F0C4
:101ED000B9FE26A002F0DAFB1948006804F040F9C8
:101EE000204604F05BFF284604F058FF14480068C1
:101EF00004F054FF002051E727A002F0C7FB204662
:101F000004F04CFF284604F049FF0D48006804F037
:101F100045FF012042E700006D616C6C6F63206338
:101F2000696E666F206661696C6564006D616C6CDA
:101F30006F6320627566206661696C640000000052
:101F400000010020094A5045475F656E636F646574
:101F50002F2FC4DAB4E6C9EAC7EBCAA7B0DC2E005B
:101F60001408014000100140080C0140094A504586
:101F7000475F656E636F64652F2F6A7065675F6684
:101F8000696E6973685F636F6D70726573732863E0
:101F9000696E666F290000006F70656E206661696A
:101FA0006C64000008B50121082000F085FF2020A6
:101FB000ADF8000010208DF8030003208DF802001A
:101FC00069460F48FFF7B8FD0120ADF800006946EB
:101FD0000B48FFF7B1FD0220ADF800006946084844
:101FE000FFF7AAFD20210648FFF785FE01210448DE
:101FF000FFF781FE02210248FFF77DFE08BD0000C9
:10200000000C014000BFFEE710B50446042C16D0BA
:1020100004DC022C07D0032C1FD111E0052C08D0C2
:102020000F2C1AD113E00EA002F030FB00F0EAFEF4
:1020300013E00EA002F02AFB00F08CFE0DE00CE095
:102040000DA002F023FB0F4800F07AFD05E00EA082
:1020500002F01CFB06F0E4FB00BF00BF10BD000057
:1020600053656E64486561727400000053656E6468
:1020700050686F746F0A000053656E644461746148
:102080000A000000F0110020D6D8C1ACCDF8C2E79C
:1020900000000000704708B54FF4C06000F048F839
:1020A00031208DF8000000208DF801008DF802002D
:1020B00001208DF80300684600F002F808BD00001A
:1020C00070B5002100230F22C47804B3154C246896
:1020D00004F4E064C4F5E064210AC1F10403CA40D9
:1020E000447804FA03F184781440214309010E4C2A
:1020F0000678A155047804F01F050124AC4005784A
:102100006D11AD0005F1E025C5F8004109E0047846
:1021100004F01F050124AC40044D0678761145F803
:10212000264070BD0CED00E000E400E080E100E03E
:1021300002490143024A1160704700000000FA059D
:102140000CED00E00024002630E01948007830BB98
:10215000601C80B204460C2804DB00240320FFF737
:1021600053FF1FE013480078012806D03046711C49
:102170008EB21149098888420BDB002606F0ACFCC0
:102180000520FFF741FF00200A49087006F0B6FC61
:1021900008E0142D06DB0620FFF736FF02E00F20D3
:1021A000FFF732FF4FF47A7006F0E6FCCDE700004F
:1021B00014000020180100201C00002070B5064605
:1021C000301D092821D2DFE800F01D1A1714110E66
:1021D0000B080500482406251AE03824062517E0D8
:1021E0002824062514E01824062511E008240625D5
:1021F0000EE008240E250BE018240E2508E0282404
:102200000E2505E038240E2502E000BF00BF00BF08
:1022100000BF21469B2001F04BF82946AB2001F07E
:1022200047F870BD10B5044614F1040F0EDB042C02
:102230000CDC201D0007010EA72001F039F8201D3D
:102240000007010EA82001F033F801E000BF00BF35
:1022500010BD10B5044614F1040F0BDB042C09DC8F
:10226000C4F104003022A2EB8000C1B29C2001F036
:102270001FF801E000BF00BF10BD10B500F0DCFE8C
:10228000FFF7F8FA02F0ACF910BD000038B50024F1
:10229000002000908021122001F00AF808B90020E7
:1022A00038BD0B220121684600F002FF08B900206A
:1022B000F6E79DF80000212814D100240DE00B4A18
:1022C00002EB44025178094A12F8140000F0F0FFC2
:1022D00008B90020E4E7601C84B205480078844215
:1022E000EDDB01E00020DBE70120D9E73C00002026
:1022F000D600002010B50446062C79D2DFE804F0A1
:1023000003142D465F79FF21132000F0D1FF6521D2
:102310000E2000F0CDFF00212D2000F0C9FF00218C
:102320002E2000F0C5FF70E0FD21132000F0C0FF5B
:102330005A21012000F0BCFF5C21022000F0B8FF10
:1023400065210E2000F0B4FF00212D2000F0B0FF29
:1023500000212E2000F0ACFF57E0FD21132000F0FB
:10236000A7FF5821012000F0A3FF6021022000F008
:102370009FFF65210E2000F09BFF00212D2000F023
:1023800097FF00212E2000F093FF3EE0FD21132057
:1023900000F08EFF8421012000F08AFF4C210220F2
:1023A00000F086FF65210E2000F082FF00212D2025
:1023B00000F07EFF00212E2000F07AFF25E0FD21B5
:1023C000132000F075FF9621012000F071FF4021DD
:1023D000022000F06DFF65210E2000F069FF002152
:1023E0002D2000F065FF00212E2000F061FF0CE0A1
:1023F00008E0FF21132000F05BFFE5210E2000F034
:1024000057FF02E000BF00BF00BF00BF10BD10B506
:102410000446072C58D2DFE804F004111E2B38457F
:1024200052000621A62000F043FF8021602000F02A
:102430003FFF8021612000F03BFF48E02621A620DD
:1024400000F036FF8021602000F032FF8021612003
:1024500000F02EFF3BE01E21A62000F029FFA02166
:10246000602000F025FF4021612000F021FF2EE0D8
:102470001E21A62000F01CFF4021602000F018FF64
:10248000A021612000F014FF21E01E21A62000F011
:102490000FFF8021602000F00BFFC021612000F0C1
:1024A00007FF14E01E21A62000F002FF602108466D
:1024B00000F0FEFE6021612000F0FAFE07E04621F8
:1024C000A62000F0F5FE02E000BF00BF00BF00BF85
:1024D00010BD2DE9F84306460F4614461D46DDF8AB
:1024E0002080B8F1000F04D14621122000F0E0FE58
:1024F00003E00621122000F0DBFE172201216846CE
:1025000000F0D6FD9DF8000000EBA60000F0FF09EA
:102510004946172000F0CCFEC4F38701182000F0D4
:10252000C7FE19220121684600F0C2FD9DF8000097
:1025300000EB670000F0FF094946192000F0B8FEE3
:10254000C5F347011A2000F0B3FE3222012168468C
:1025500000F0AEFD04F003009DF80010084305F004
:10256000010140EA810006F0030140EA011007F092
:10257000010140EA81194946322000F099FEC4F376
:102580008701292000F094FEC5F347012C2000F0BC
:102590008FFE2A220121684600F08AFD04F0030024
:1025A0009DF80010084305F0010140EA8109494601
:1025B0002A2000F07DFEBDE8F88370B500240025D8
:1025C0000520FEF751FF044614B1204600F098F9AB
:1025D00070BD00007FB50020009001900290039034
:1025E000012538A33FA242A14C4801F0BBFF6B4636
:1025F0002A0234A13BA0FEF7EBFC002858D1019A37
:1026000091B20098FFF75EF8FA20FEF72DFF04461E
:10261000002C49D02046FEF715FF202844D1204643
:10262000FEF7B5FE0A2839D2DFE800F0050B1015D9
:102630001A1F24292E333AA1384801F093FF0025B0
:1026400031E03CA1354801F08DFF2CE040A133483A
:1026500001F088FF27E047A1304801F083FF22E026
:102660004CA12E4801F07EFF1DE053A12B4801F044
:1026700079FF18E057A1294801F074FF13E05DA12C
:10268000264801F06FFF0EE062A1244801F06AFFC6
:1026900009E069A1214801F065FF04E070A11F482D
:1026A00001F060FF00BF00BF6846FEF7F6FB03E0E5
:1026B00072A11A4801F056FF15B1012004B070BD97
:1026C0000020FBE76B3738316650664D464E4D466D
:1026D0006574555475377166463938474B56493DD0
:1026E0000000000035313737353034353500000013
:1026F0004F6E654E65745F4465764C696E6B0D0A6E
:1027000044455649443A2025732C2020202020415E
:1027100050494B45593A2025730D0A0000380140B5
:10272000546970733A09C1ACBDD3B3C9B9A60D0AD7
:10273000000000005741524E3A09C1ACBDD3CAA7B0
:10274000B0DCA3BAD0ADD2E9B4EDCEF30D0A0000EF
:102750005741524E3A09C1ACBDD3CAA7B0DCA3BAA7
:10276000C9E8B1B84944BCF8C8A8CAA7B0DC0D0A8A
:10277000000000005741524E3A09C1ACBDD3CAA770
:10278000B0DCA3BAB7FECEF1C6F7CAA7B0DC0D0A1B
:10279000000000005741524E3A09C1ACBDD3CAA750
:1027A000B0DCA3BAD3C3BBA74944BCF8C8A8CAA726
:1027B000B0DC0D0A000000005741524E3A09C1AC8E
:1027C000BDD3CAA7B0DCA3BACEB4CADAC8A80D0A72
:1027D000000000005741524E3A09C1ACBDD3CAA710
:1027E000B0DCA3BACADAC8A8C2EBCEDED0A70D0A05
:1027F000000000005741524E3A09C1ACBDD3CAA7F0
:10280000B0DCA3BABCA4BBEEC2EBCEB4B7D6C5E471
:102810000D0A00005741524E3A09C1ACBDD3CAA7B8
:10282000B0DCA3BAB8C3C9E8B1B8D2D1B1BBBCA4BB
:10283000BBEE0D0A000000005741524E3A09C1ACF0
:10284000BDD3CAA7B0DCA3BAD6D8B8B4B7A2CBCD93
:10285000C1ACBDD3C7EBC7F3B0FC0D0A000000004C
:102860004552523A09C1ACBDD3CAA7B0DCA3BACE17
:10287000B4D6AAB4EDCEF30D0A0000005741524E73
:102880003A094544505F5061636B6574436F6E6EE7
:10289000656374204661696C65640D0A0000000080
:1028A0007FB504460D4600200090019002900390F1
:1028B0000DA00088208000200090019002900390DD
:1028C0000A4802880AA1684601F0F0FE69462046DF
:1028D000FDF7BAFC09A12046FDF7B6FC2046FDF73E
:1028E000DBFCC0B204B070BD7B0000001C00002007
:1028F0002274696D65223A25640000007D000000A5
:102900002DE9F0418CB006460020089009900A900D
:102910000B900790069005900490804600270024B5
:1029200000255A490870DDE9080104F083FB3046B0
:10293000FEF788FD8046B8F1300F09D0B8F1900F4E
:1029400033D0B8F1A00F14D0B8F1D00F4AD142E083
:1029500004AB05AA07A93046FEF71CFD07463FB9A0
:10296000049800904AA15448059B079A01F0FAFD8B
:102970003BE004A805AB06AA07A900903046FEF785
:102980009BFC074687B908A80090BDF81810DDE940
:1029900004320798FEF7BBFA0498009047A1464816
:1029A000059B079A01F0DEFD1FE0F07855280DD158
:1029B0003079AA280AD1707908B149A000E049A06D
:1029C000024649A13C4801F0CDFD03E04AA13A4846
:1029D00001F0C8FD09E04EA001F058FE01202B498E
:1029E000087002E04FF0FF3700BF00BFFEF72EFD7A
:1029F000781C10B90CB0BDE8F0813A210598FDF7BC
:102A000041FC044604B3641C05E014F8012B28467D
:102A10006D1C01A90A542078302802DB207839285F
:102A2000F3DD01A8FDF753FC05462A463BA12248E9
:102A300001F098FD3CA10598FDF712FC50B1012D65
:102A400003D101203A4908700BE055B900203849FC
:102A5000087006E037A10598FDF702FC08B1374978
:102A60000D80B8F1A00F0ED16FB9079804F096F958
:102A7000059804F093F9099A91B20898FEF722FE9E
:102A800008A8FEF70AFA00BFB4E70000160100200C
:102A90007372635F64657669643A2025732C2072D3
:102AA00065713A2025732C207265715F6C656E3AF2
:102AB0002025640D0A00000000380140636D646940
:102AC000643A2025732C207265713A2025732C20DE
:102AD0007265715F6C656E3A2025640D0A00000016
:102AE000457272004F6B0000546970733A09536568
:102AF0006E642025730D0A00546970733A094D65A0
:102B00007373616765204944204572720D0A0000A5
:102B1000D0C4CCF8BBD8D3A6000000002025642088
:102B200042797465730D0A0070686F746F0000005D
:102B30001801002074696D65000000001C00002071
:102B400070B5A6B0064600202290239024902590D0
:102B500000240025802102A8FDF76BFB314602A866
:102B6000FFF79EFE0446002C21D022A8032300225A
:102B7000214600900FA0FEF7B9FAA0B908E002A81C
:102B8000415D239A501C239022988154681C05B201
:102B9000A542F4DB239A91B22298FEF793FD22A876
:102BA000FEF77BF903E006A10D4801F0DBFC26B03F
:102BB00070BD000035313737353034353500000011
:102BC0005741524E3A094544505F4E65774275660B
:102BD000666572204661696C65640D0A000000003C
:102BE00000380140F0B58BB006460F460020079034
:102BF000089009900A9037A30FCB03AC0FC40122B1
:102C00003946384803F0EAFA374908700846007830
:102C100000285CD135A001F039FD3248808984B2AA
:102C20004FF47A7094FBF0F100FB114085B207A8D5
:102C3000022303AA214600903046FEF757FA0028E7
:102C400041D1FEF703FC2DA13048089A01F08AFC1F
:102C5000089A91B20798FEF735FD07A8FEF71DF90F
:102C600022462BA1294801F07DFC25E04FF4FA70A3
:102C700005F054F9B4F57A7F11DB02AB4FF47A72A8
:102C80002849184803F069FB174908704FF47A7116
:102C90002448FEF717FDA4F57A7084B20CE02A46AA
:102CA00002AB20490F4803F058FB0F490870294632
:102CB0001C48FEF707FD0024002CD7DC1AA113489E
:102CC00001F050FC03E01CA1104801F04BFC0BB0DC
:102CD000F0BD00007B2264735F6964223A22707049
:102CE00070227D00F03C002019010020B4F2BFAA40
:102CF000CEC4BCFEB3C9B9A60D0A000053656E640C
:102D00002025642042797465730D0A000038014063
:102D1000696D616765206C656E203D2025640D0A34
:102D20000000000008390020696D61676520736547
:102D30006E64206F6B0D0A004544505F5061636BF9
:102D400065745361766544617461204661696C65A0
:102D5000640D0A0010B51C480078401C1A49087020
:102D60000846027819A11D4801F0A0FC20201C494A
:102D70000860012008600220091D086019A001F008
:102D800085FC00201B4908701448FEF7D9FF68B97C
:102D900012490020FFF726FF20201149086001207A
:102DA000091D08600220091F08600BE012A001F055
:102DB0006DFC20200A49091D08600120091F0860D8
:102DC0000220086010BD00001E000020303A70682C
:102DD0006F746F5F25642E6A706700009801002091
:102DE000100C01400D0AD5FDD4DAC5C4D5D52E2E60
:102DF0002E000000D70000200D0AC5C4D5D5CAA7F3
:102E0000B0DC00001FB500200090019002900390FC
:102E10006846FEF753F980B90AA0019901F036FC23
:102E2000019A91B20098FEF74DFCDDE9000104F033
:102E300001F96846FEF731F802E00CA001F026FC2B
:102E40001FBD000073656E642070696E6720706B33
:102E50007420746F207365727665722C20627974A9
:102E600065733A2025640D0A00000000D0C4CCF838
:102E7000CAA7B0DC0000000029B1064A526902432B
:102E8000044B5A6104E0034A52698243014B5A6180
:102E9000704700000010024029B1064AD26902437F
:102EA000044BDA6104E0034AD2698243014BDA61E0
:102EB000704700000010024029B1064A926902439F
:102EC000044B9A6104E0034A92698243014B9A6180
:102ED000704700000010024030B50021002200249D
:102EE00000232D4D6D6805F00C0121B1042905D09A
:102EF000082923D105E0294D056022E0274D056012
:102F00001FE0254D6D6805F47012234D6D6805F4C2
:102F10008034022505EB92421CB9214D55430560D2
:102F20000BE01D4D6D6805F400351DB11C4D55437A
:102F3000056002E0194D5543056002E0174D05603C
:102F400000BF00BF144D6D6805F0F0010909154D73
:102F50006B5C0568DD4045600F4D6D6805F4E06110
:102F6000090A104D6B5C4568DD4085600A4D6D684F
:102F700005F46051C90A0B4D6B5C4568DD40C560C6
:102F8000054D6D6805F44041890B074D6B5CC568C4
:102F9000B5FBF3F5056130BD0010024000127A0068
:102FA00000093D000000002010000020F0B503469D
:102FB0000124002600250020086000BF1046571C91
:102FC000BAB21D5C05F07F07086807FB04000860C3
:102FD000E401761C042E02D94FF0FF30F0BD05F05D
:102FE00080000028EAD11046F8E708E0FFF7E5FA8C
:102FF0000420FFF709F84FF4C87005F0BDFDF5E7B0
:1030000010B540210B48FEF774FE00F071F98021E5
:103010000848FEF76EFE00F06BF940210548FEF708
:103020006AFE00F065F940210248FEF762FE00F0FA
:103030005FF910BD0010014008B501211020FFF715
:103040003BFF4020ADF8000003208DF80200142063
:103050008DF8030069460748FEF76EFD0121102038
:10306000FFF72AFF8020ADF8000069460148FEF70F
:1030700063FD08BD0010014010B540210B48FEF76C
:1030800038FE00F035F980210848FEF734FE00F0E4
:103090002FF940210548FEF72EFE00F029F94021C6
:1030A0000248FEF726FE00F023F910BD0010014093
:1030B00070B505460C46164600F08EF808B900209B
:1030C00070BD422000F05CF800F0CCF818B900F0B8
:1030D000ADF80020F4E7304600F052F800F0C2F8F6
:1030E00000F0A4F800F078F808B90020E8E74320E1
:1030F00000F046F800F0B6F818B900F097F8002094
:10310000DEE70CE000F012F82870012C02D1FFF786
:10311000B3FF01E0FFF774FF6D1C601E84B2002C4A
:10312000F0D100F083F80120CAE7000070B508254F
:10313000002480211148FEF7DEFD14E06006040E35
:1031400040210E48FEF7D5FD00F0D2F840210B4893
:10315000FEF7D1FD00F0CCF880210848FEF7C0FD55
:1031600008B144F00104281EA5F10101CDB2E5D15A
:1031700040210248FEF7BDFD204670BD0010014011
:1031800070B5044608251BE040211248FEF7B1FD4A
:1031900000F0AEF804F0800020B180210D48FEF769
:1031A000AAFD03E080210B48FEF7A3FD6006040E94
:1031B00000F09EF840210748FEF79DFD00F098F8CA
:1031C000281EA5F10101CDB2DED140210148FEF754
:1031D00090FD70BD0010014010B580211248FEF72F
:1031E0008AFD40211048FEF786FD00F081F880211D
:1031F0000D48FEF775FD08B9002010BD80210A4872
:10320000FEF777FD00F074F880210748FEF768FDAF
:1032100008B10020F1E780210348FEF76AFD00F0C5
:1032200067F80120E9E700000010014010B54021D7
:103230000B48FEF75EFD00F05BF880210848FEF7C2
:1032400058FD00F055F840210548FEF754FD00F008
:103250004FF880210248FEF74EFD00F049F810BDFE
:103260000010014010B540211048FEF742FD00F06B
:103270003FF880210D48FEF73EFD00F039F840216F
:103280000A48FEF738FD00F033F880210748FEF7C2
:1032900027FD28B140210548FEF72BFD002010BD79
:1032A00040210248FEF725FD0120F8E7001001400B
:1032B00070B504460D46FFF78FFF08B9002070BDBA
:1032C0004220FFF75DFFFFF7CDFF18B9FFF7AEFF14
:1032D0000020F4E7E0B2FFF753FFFFF7C3FF2846F3
:1032E000FFF74EFFFFF7BEFFFFF7A0FF0120E6E765
:1032F0004FF4C87001E0411E88B20028FBD170472E
:103300007CB50546002400200090019000F0E2F812
:1033100000F0007010B10E2420467CBD3D490988A4
:1033200088B26946FEF7F2FA04460CB12046F4E78B
:10333000012D36D1019800F4802000282ED0354888
:1033400000880004344908603720486040208860C5
:103350000020C860A8020861084600F0F9F837208C
:10336000FDF782FC04460CB12046D6E702202A492C
:10337000086006204860402088600020C8604FF444
:1033800080600861084600F0E3F80620FDF76CFC59
:1033900004460CB12046C0E72046BEE7252420465F
:1033A000BBE7019800F4803078B31A480088000425
:1033B0001949086037204860402088600020C860B4
:1033C0004FF480600861084600F0C2F83720FDF72E
:1033D0004BFC04460CB120469FE700200E490860D4
:1033E00006204860402088600020C8604FF480605C
:1033F0000861084600F0ACF80620FDF735FC0446ED
:103400000CB1204689E7204687E7FFE725242046C0
:1034100083E70000E4000020941200200149886343
:103420007047000000800140014988637047000038
:10343000008001400149086070470000A000304250
:1034400001490860704700008C05304200210A4B9A
:1034500002685A6242689A621A46D16A21F0F701FC
:10346000D0E902231A4303691A4343691A431143FB
:10347000014AD162704700000080014000200649E7
:10348000086048608860C86048628862C862034813
:1034900088630020C863704700800140FF07C000B8
:1034A00001480069C0B27047008001400146002019
:1034B000034A526B0A400AB1012000E00020704725
:1034C000008001400248006800F0030070470000DF
:1034D0000080014008B501460020009002480844E1
:1034E00000900098006808BD1480014010B500F0FD
:1034F00027FC10BD29B1064AD26B0243044BDA63A4
:1035000004E0034AD26B8243014BDA637047000048
:103510000080014000210A4A516847F6FF6291434A
:10352000027D83681A4343681A43C3681A430368D9
:103530001A4303691A431143014A5160704700005E
:103540000080014001480068704700008080014011
:103550000021094B02689A601A46D1686FF30A018C
:10356000D0E901231A43C3681A4303691A4311437C
:10357000014AD16070470000008001400549096898
:1035800021F00301034A11601146096801431160EB
:10359000704700000080014010B50248FDF748FC6C
:1035A00010BD00000020001030B58BB005460C4661
:1035B0001348FDF723FC00211248FDF72DFC1248AB
:1035C0000090019500200290A00803900020049034
:1035D00080200590800006908000079000200890D1
:1035E0004FF40050099000200A9069460548FDF705
:1035F00035FC01210348FDF70FFC0BB030BD000086
:1036000000F00010440402408080014030B58BB0CF
:1036100005460C461348FDF7F1FB00211248FDF763
:10362000FBFB12480090019510200290A008039027
:103630000020049080200590800006908000079074
:10364000002008904FF40050099000200A9069462D
:103650000548FDF703FC01210348FDF7DDFB0BB036
:1036600030BD000000F000104404024080800140A2
:1036700070B50446002521480068032802D127259B
:10368000284670BD1D48006838B11C4800680128F4
:1036900003D01A48006802282ED1B4F5805F02D109
:1036A00027252846EDE7B4F5006F14D10120FFF778
:1036B00027FE054605BB012011490875002008605A
:1036C000486088604FF40060C860002008610846C8
:1036D000FFF720FF10E00020FFF712FE05465DB95E
:1036E0000120074908750020086048608860C860AC
:1036F00008610846FFF70EFF2846C2E7E0000020F9
:103700007C12002030B5014600200022AC4B1B7813
:1037100081F84E30AB4B1B88A1F84C30AA4B1B688C
:103720001A0E93090B70C2F383034B7002F003036C
:103730008B70A54B1B68C3F30742CA70A24B1B8852
:10374000C3F307220A71A04B1A784A715B681A0EFC
:103750001301CB809C4B5B68C3F30742CB8843EAE1
:103760001213CB8002F00F030B72974B9B88C3F3AD
:103770000722D3094B72C2F380138B72C2F340133A
:10378000CB72C2F300130B7300234B738C4B1B687B
:103790001BB18B4B1B68012B3CD193071B0D0B619D
:1037A000894B1A790B6943EA82030B61864B9B684C
:1037B0001A0E0B6943EA92130B61C2F3C2030B7535
:1037C00002F007034B75804B9B68C3F30742530914
:1037D0008B75C2F38203CB7593075B0F0B767A4B25
:1037E0001B89C3F307220B7E43EAD2130B760B69C6
:1037F0005B1C4B640C7E4B6CA41C0125A5406B43E9
:103800004B640C7A0123A3408B64D1E911346343E8
:103810004B6421E06A4B1B68022B1DD16A4B1A795D
:1038200093069B0A0B61684B9B681A0E0B6943EA6F
:1038300002230B61644B9B68C3F307420B6913437C
:103840000B61614B1B89C3F307220B695B1CDB0413
:103850004B644FF400738B64C2F3801301F8193F7B
:1038600093065B0E4B70584B1A7A4B7843EAD2138F
:103870004B7002F07F038B70534BDB681A0ED30939
:10388000CB70C2F341130B71C2F382034B719307E8
:103890001B0F8B714C4BDB68C3F307428B7943EAF8
:1038A00092138B71C2F34013CB7100230B7202F0A1
:1038B00001034B72444B9B89C3F30722D3098B72DC
:1038C000C2F38013CB72C2F340130B73C2F3001325
:1038D0004B73C2F381038B7302F00303CB733A4B38
:1038E0001A7B53080B7401234B74384B1B681A0E58
:1038F000CA741939354B1B68C3F307421402CC85CF
:10390000324B1B88C3F30722CB8D1343CB852F4B40
:103910001A7814060C635B681A0E0B6B43EA0244B8
:103920000C632A4B5B68C3F307420B6B43EA022428
:103930000C63264B9B88C3F307220B6B13430B636B
:10394000224B1A7934235A54204B9B681A0E352384
:103950005A541E4B9B68C3F3074214068C631B4BDF
:103960001B89C3F307228B6B43EA02448C63174B1A
:103970001A7A8B6B43EA02248C63144BDB681A0EB1
:103980008B6B13438B63114BDB68C3F307423C2300
:103990005B5C43EA12143C235C5413071C0DCC8778
:1039A0000A4B9B89C3F30722CB8F1343CB87074B6B
:1039B0001A7B540840235C54012441235C5430BDDD
:1039C000E0000020E4000020FC1100200C12002088
:1039D00008B500200090684600F06CFA08B1FF209E
:1039E00008BD0098C0F34320FAE710B50424FFF7A0
:1039F000EFFF0446042C01D1002010BDFF2C01D1A3
:103A00000220FAE70120F8E710B50024FEF743FB97
:103A1000FEF74AF8FFF732FD00F0CEF804460CB18D
:103A2000204610BD00F02AF804460CB12046F8E705
:103A30000120104908750020086048608860C8604F
:103A400008610846FFF766FD1CB90B48FFF75AFEF0
:103A5000044634B90849B1F84C10080400F010FAD3
:103A6000044624B94FF40060FFF702FE04462046E6
:103A7000D7E700007C1200202C12002038B500246B
:103A800001200090FFF71EFD10B92524204638BD07
:103A900044480068042828D00020434908600220D8
:103AA0004860C02088600020C8604FF480600861D2
:103AB0000846FFF74DFDFDF7EBF804460CB1204634
:103AC000E5E70020FFF706FD384908600420FFF70E
:103AD00001FD364948600820FFF7FCFC3349886047
:103AE0000C20FFF7F7FC3149C8602E48006858B138
:103AF0002C480068012807D02A480068062803D00F
:103B000028480068022816D10020274908600320B1
:103B10004860402088600020C8604FF480600861E1
:103B20000846FFF715FD69460320FDF7F3F8044644
:103B30000CB12046ABE71B48006804282ED0BDF826
:103B400000001B490860BDF8000000041649086029
:103B500009204860C02088600020C8604FF4806061
:103B600008610846FFF7F4FCFDF792F804460CB133
:103B700020468CE70020FFF7ADFC0E4908600420CA
:103B8000FFF7A8FC0B4948600820FFF7A3FC094990
:103B900088600C20FFF79EFC0649C8600024204680
:103BA00075E70000E0000020941200200C120020B5
:103BB000E4000020FC1100202DE9F0410024002643
:103BC00000250027A046B22059490875002008604A
:103BD00048608860C86008610846FFF79BFC0320C6
:103BE000FFF7CCFC0120FFF725FC002051490860BD
:103BF00048608860C8604FF4806008610846FFF73D
:103C0000A7FCFDF71BF8044614B12046BDE8F0817F
:103C10004FF4D5704749086008204860402088600C
:103C20000020C8604FF4806008610846FFF790FCF0
:103C3000FDF7BEF804462CB901203F4908604FF05B
:103C4000804812E000203B4908603720486040204F
:103C500088600020C8604FF4806008610846FFF764
:103C600077FC3720FDF700F8044600203149086052
:103C700037204860402088600020C8604FF4806092
:103C800008610846FFF764FC3720FCF7EDFF0446A7
:103C9000002C4AD136E000202649086037204860D1
:103CA000402088600020C8604FF4806008610846AA
:103CB000FFF74EFC3720FCF7D7FF04460CB1204637
:103CC000A4E71E4848EA00001A4908602920486015
:103CD000402088600020C8604FF48060086108467A
:103CE000FFF736FCFCF7FAFF04460CB120468DE7DF
:103CF0000020FFF7EFFB0646012080EAD67080F037
:103D000001076D1C1FB94FF6FF708542C3D34FF6F4
:103D1000FF70854202D31B24204677E706F08040DF
:103D2000061E02D002200449086020466EE700000B
:103D30007C12002094120020E0000020000010807F
:103D400010B51148006801280BD100200F49886088
:103D500040F24C40C8600C20FCF786FF0C4908700C
:103D600002E000200A4908704FF48070FFF75CFB06
:103D700000214FF48070FFF7BDFB0120054908606A
:103D80000348007810BD0000E800002000800140DA
:103D9000EC000020F00000202DE9F04180460D46A7
:103DA00014461E46002700202E4908702E49086040
:103DB00001202E49086000202D49C8622D48006866
:103DC000022801D104026D0A2B48046010202A4900
:103DD0004860402088600020C8604FF4806008611F
:103DE0000846FFF7B5FB1020FCF73EFF074617B16A
:103DF0003846BDE8F0814FF0FF302049086006FBEF
:103E000004F04860902088600220C86000200861AB
:103E1000012048610846FFF719FB1748056012208A
:103E200015494860402088600020C8604FF48060D9
:103E300008610846FFF78CFB1220FCF715FF0746C8
:103E40000FB13846D5E701210802FFF753FB0120E7
:103E5000FFF7F6FA06FB04F14046FFF7A5FB3846EC
:103E6000C7E70000EC000020F0000020E800002080
:103E700000800140E000002094120020A8120020E1
:103E800070B5044600250A480460072008494860C8
:103E9000402088600020C8604FF4806008610846B8
:103EA000FFF756FB0720FCF7DFFE0546284670BDEE
:103EB0009412002070B5044600250A4800880004CA
:103EC0000949886040F24D40C8600D20FCF7CCFEE7
:103ED00005460DB1284670BD03484069206028465C
:103EE000F9E70000E40000200080014010B5002444
:103EF00000BFFFF751FB30B90748006818B9074801
:103F000000780028F5D00548007810B10348007803
:103F100010BD2046FCE70000F0000020EC0000206F
:103F200010B5002400BFFFF737FB30B9094800681F
:103F300018B9094800780028F5D00748007810B172
:103F40000548007810BD40F2FF50FFF767FA2046A1
:103F5000F8E70000F0000020EC0000202DE9F84315
:103F600080460F4615461E46002400200090454915
:103F70000870454908600120444908600020444910
:103F8000C86244480068022801D105027F0A4248FD
:103F90000560102040494860402088600020C860CB
:103FA0004FF4806008610846FFF7D2FA1020FCF752
:103FB0005BFE044614B12046BDE8F883374800880C
:103FC00000043549086037204860402088600020A0
:103FD000C8604FF4806008610846FFF7B9FA3720DF
:103FE000FCF742FE04460CB12046E5E72A4806608D
:103FF000172029494860402088600020C8604FF49D
:10400000806008610846FFF7A3FA1720FCF72CFE32
:1040100004460CB12046CFE71F48076019201E490F
:104020004860402088600020C8604FF480600861CC
:104030000846FFF78DFA1920FCF716FE04460CB16E
:104040002046B9E74FF0FF301549086006FB05F040
:104050004860902088600020C860086101204861A5
:104060000846FFF7F3F901210802FFF743FA0120A0
:10407000FFF7E6F906FB05F14046FFF7C7FA2046D1
:104080009AE70000EC000020F0000020E80000208B
:1040900000800140E000002094120020E400002095
:1040A000A812002010B500F001F810BD0CB50020DA
:1040B000019000903348006840F480303149086036
:1040C00000BF3048006800F4003000900198401CA8
:1040D0000190009818B90198B0F5A06FF1D1294866
:1040E000006800F4003010B10120009001E00020D1
:1040F00000900098012843D12348006840F0100048
:10410000214908600846006820F00300086008465E
:10411000006840F0020008601A4840681949486089
:104120000846406848600846406840F4806048603F
:104130000846406820F47C1048600846406840F417
:10414000E81048600846006840F08070086000BFD2
:104150000C48006800F000700028F9D00948406859
:1041600020F00300074948600846406840F002001C
:10417000486000BF0348406800F00C000828F9D1EF
:104180000CBD0000001002400020024010B504F0F9
:10419000F5FD012801D004F0A7FD00F031F810BDB5
:1041A00010B51348006840F0010011490860084646
:1041B0004068104908400E494860084600680E49AA
:1041C00008400B4908600846006820F48020086019
:1041D0000846406820F4FE0048604FF41F008860E5
:1041E000FFF760FF4FF000600449086010BD000059
:1041F000001002400000FFF8FFFFF6FE08ED00E0AF
:104200000448006820B103480068401E0149086066
:1042100070470000D800002010B540F225510E482C
:1042200000F083F8B8B10D480088B0F5806F02D374
:1042300000200A4908800848001D0088C1B20748CC
:1042400002880088401C054B1880054881542021B5
:10425000014800F007F810BD00480040F4000020BD
:10426000C012002001F40072B2F5007F00D100BF3F
:10427000CA430280704721B1828942F40052828190
:1042800004E082894DF6FF731A4082817047000076
:1042900000B585B001210420FEF70EFE0121880340
:1042A000FEF70AFE4FF40070ADF8100018208DF8EC
:1042B000130003208DF8120004A91348FDF73CFCFD
:1042C0004FF48060ADF8100004208DF8130004A9AD
:1042D0000D48FDF731FC4FF4E13000900020ADF8BF
:1042E0000400ADF80600ADF80800ADF80C000C2095
:1042F000ADF80A006946054800F066F80121034858
:10430000FFF7B9FF05B000BD0008014000380140CB
:1043100002460020B1F5007F00D100BF13880B409A
:104320000BB1012000E00020704770B50246002468
:1043300000230025002040F66A16B14200D100BFDC
:10434000C1F3421501F01F03012606FA03F3012D04
:1043500002D19689334006E0022D02D1168A3340FD
:1043600001E0968A33400C12012606FA04F41688FE
:10437000344013B10CB1012000E0002070BDF0B555
:104380000346002400260025002040F66A17B942A3
:1043900000D100BF1846C1F3421401F01F060127E7
:1043A00007FA06F5012C01D10C3004E0022C01D1F2
:1043B000103000E014301AB107682F43076002E0A4
:1043C0000768AF430760F0BD2DE9F04786B00546AA
:1043D0000E460024A24600BFA1460027B08900B1C6
:1043E00000BF2F462C8A4CF6FF700440F08804432F
:1043F0002C82AC894EF6F3100440B0883189084312
:10440000718908430443AC81AC8A4FF6FF400440F5
:10441000B0890443AC8201A8FEF75EFD1F488742C5
:1044200002D1DDF810A001E0DDF80CA0A88900F4AD
:10443000004040B10AEBCA0000EB0A1031684900A5
:10444000B0FBF1F807E00AEBCA0000EB0A10316894
:104450008900B0FBF1F86420B8FBF0F004012009FA
:10446000642101FB1089A88900F4004040B132208A
:1044700000EBC900B0FBF1F000F00700044308E0D6
:10448000322000EB09106421B0FBF1F000F00F00C6
:1044900004432C8106B0BDE8F087000000380140DD
:1044A000C1F308028280704700BFFEE710B586B0F6
:1044B000044601212120FEF7FFFC01218804FEF7BC
:1044C000EBFC01212448FDF7C3FB18208DF81700F1
:1044D0004FF48070ADF8140003208DF8160005A984
:1044E0001E48FDF729FB04208DF81700C001ADF828
:1044F000140003208DF8160005A91848FDF71CFBD1
:1045000001940020ADF810000C20ADF80E00002042
:10451000ADF80C00ADF80A00ADF8080001A910488C
:10452000FFF752FF01210E48FFF7A5FE012240F2DE
:1045300025510B48FFF723FF27208DF800000120AD
:104540008DF8030000208DF801008DF80200684608
:10455000FDF7B6FD06B010BD300014000014014098
:10456000004800400FB430B5CBB0054601AC50A8B0
:1045700000904FF4947101A8009B4F9A00F0AAF8A4
:10458000002000900BE014F8011B2846FFF788FF7D
:1045900000BF40212846FFF7BBFE0028F9D0207855
:1045A0000028F0D14BB030BC5DF814FB2DE9F04190
:1045B00007460C46154600260DE014F8011B384648
:1045C000FFF76EFF00BF40213846FFF7A1FE00282D
:1045D000F9D0701C86B2AE42EFDBBDE8F08100007E
:1045E0001FB501214120FEF767FC0820ADF80C0043
:1045F00004208DF80F0003208DF80E0003A9164843
:10460000FDF79AFA03210220FDF776FA08200190BF
:1046100000208DF808000C208DF8090001208DF88D
:104620000A0001A8FDF7DCF80820FDF7BDF84FF4FB
:10463000C060FDF77DFD09208DF8000000208DF899
:10464000010003208DF8020001208DF80300684668
:10465000FDF736FD1FBD00000010014070B5034698
:104660000024002500BF01F07F05C90909B145F00C
:1046700080051046561CB2B21D54641C09B1052CAD
:10468000F1DB501E80B2024670BD00000FB4054B36
:1046900010B503A9044A029800F008F910BC5DF8AF
:1046A00014FB0000796D00087C0100200FB4084B5A
:1046B00010B504A902AA039800F0F8F8044602A96C
:1046C000002000F095FC204610BC5DF814FB0000B3
:1046D000F14F00087CB5044600201D46164600290F
:1046E0000BD0491ECDE90041044B6A4629463046AD
:1046F00000F0DCF8009A002111707CBDDB4F00084F
:10470000004870478801002002E008C8121F08C155
:10471000002AFAD170477047002001E001C1121F42
:10472000002AFBD1704700002DE9FF5F82B0002115
:10473000DDE90430020DDDF840B0034318D044F643
:104740001050A2F2FF3242431514119801281FD0D5
:10475000A5EB0B00401C5FEA000A4FF000064E4F2D
:10476000DFF83891B046504615D5CAF1000413E081
:10477000119801244AA3012801D16FEA0B01029884
:10478000119AC0E90031C0E9024206B0BDE8F09FCD
:10479000CBF10000DFE704460021404A491842EB14
:1047A0000450CDE9001012E0E00707D032463B4646
:1047B00040464946FCF70EF98046894632463B465C
:1047C00010461946FCF706F906460F466410002C01
:1047D000EAD1DDE90401DDE90023BAF1000F06DAD0
:1047E000FCF7F8F842464B46FCF7F4F805E0FBF717
:1047F000EAFE42464B46FBF7E6FE04460E46002222
:10480000284BFCF771F903D84FF0FF30014607E061
:104810000022254B20463146FBF72EFEFCF74CF9D3
:10482000102409E0002C0ADB0A220023FBF7A4FF76
:10483000039B30321A55641E50EA0102F2D1641C07
:10484000039AC4F111031444119A012A03D00122DE
:1048500008430DD10AE0084304D000204FF0110BAB
:10486000119072E7A3EB0B056D1E0DE05B4504DDB7
:104870004FF0000205F1010504E003DA4FF00002F9
:10488000A5F10105002AECD002981199C0E9023186
:10489000C0E9004579E70000000014400000F03F47
:1048A000300000000000F0430000E03F2DE9FF4F22
:1048B00095B09B468946064600250FE2252877D10C
:1048C00000242746F84A0121059400E0044316F825
:1048D000013F203B01FA03F01042F7D130782A283B
:1048E00011D06FF02F033078A0F13002092A16D8CA
:1048F000059A44F0020402EB820203EB42021044E8
:10490000761C0590EFE759F8042B0592002A03DA8C
:10491000504244F40054059044F00204761C307870
:104920002E2816D116F8010F44F004042A280DD0C1
:104930006FF02F023078A0F13003092B09D807EB74
:10494000870302EB4303C718761CF3E759F8047B8F
:10495000761C30786C280FD006DC4C2817D06828DD
:104960000DD06A2814D104E0742810D07A280FD111
:104970000DE044F400140AE044F4801401E044F42F
:1049800040147278824202D104F58014761C761CA1
:10499000307866280BD013DC582877D009DC002843
:1049A00075D04528F6D04628F4D047281AD19DE185
:1049B00018E0632835D0642879D0652812D195E1B4
:1049C000702873D008DC6728F1D069286FD06E2872
:1049D0000DD06F2806D1B5E073282CD0752875D07E
:1049E000782874D05A46179990476D1C75E1C4F326
:1049F0000250022809D003280DD0D9F8001004284D
:104A00000DD00D6009F1040967E1D9F80010EA172B
:104A1000C1E90052F6E7D9F800100D80F2E70D70F9
:104A2000F0E719F8041B8DF8001000208DF8010044
:104A3000EA46012003E059F804AB4FF0FF3061076C
:104A40004FF0000102D40DE008F101018846B9429F
:104A50000FDA8045F8DB1AF808100029F4D108E0D5
:104A600008F1010188468142FADB1AF80810002992
:104A7000F6D105985B46A0EB080721463846179A01
:104A800000F094FA284400EB080507E04DE029E126
:104A90000DE01AF8010B5A4617999047B8F1010832
:104AA000F7D25B4621463846179A13E142E00A22C4
:104AB0000092C4F302524FF0000A022A08D059F8BB
:104AC00004CB032A4FEAEC710AD00DE029E02AE07A
:104AD00009F1070121F00702F2E802C1914609E05D
:104AE0000FFA8CFC4FEAEC71042A03D14FFA8CFCCC
:104AF0004FEAEC71002907DA0A460021DCF1000CCC
:104B000061EB02012D2202E0220504D52B228DF853
:104B10000420012203E0E20701D02022F7E79046BB
:104B200059E00A2102E010220DE010214FF0000AA6
:104B300000910BE010224FF0000A44F00404082713
:104B4000009203E008224FF0000A0092C4F30252E0
:104B5000022A05D059F804CB0021032A08D009E025
:104B600009F1070121F00702F2E802C1914605E0D0
:104B70001FFA8CFC042A01D10CF0FF0C4FF0000846
:104B8000220728D5702806D0009B83F0100353EA33
:104B90000A0305D00EE040228DF80420012208E02F
:104BA0005CEA010206D030228DF804208DF8050061
:104BB00002229046009B83F0080353EA0A030AD1BD
:104BC0005CEA010201D1620705D530228DF804208C
:104BD0004FF001087F1E582804D034A003900EA87F
:104BE00002900DE036A0F9E753466046009AFBF7C5
:104BF000C3FD84460398825C0298401E02900270B6
:104C00005CEA0100F0D1029806A9081A00F1200A16
:104C1000600702D524F4803400E00127574502DD07
:104C2000A7EB0A0000E0002000EB0A0100900598C5
:104C30004144401A0590E00306D45B462146179A8A
:104C4000059800F0B3F90544002706E001A85A468C
:104C5000C05D179990476D1C7F1C4745F6DBE0034C
:104C60000CD55B462146179A059800F09FF905443C
:104C700004E030205A46179990476D1C0099481E51
:104C800000900029F5DC08E0029802995A46007865
:104C9000491C0291179990476D1CBAF10001AAF1C5
:104CA000010AF1DC65E100000928010030313233EE
:104CB0003435363738396162636465660000000058
:104CC0003031323334353637383941424344454642
:104CD0000000000000F058F90544761C30780028E8
:104CE0007FF4ECAD19B02846BDE8F08F620700D420
:104CF000062709F1070222F0070CFCE80223E1462F
:104D000003F000485FEA080C02D00FF2702C0DE0AF
:104D10005FEA045C02D50FF2682C07E05FEAC47C0E
:104D200002D00FF2602C01E0AFF2700C4FF0FF38B0
:104D300023F00043CDF850C065280CD006DC452890
:104D400009D046281DD047283DD13DE0662818D01F
:104D500067287ED138E00021112F01DB112000E00F
:104D6000781CCDE9000106A90EA8FFF7DDFCDDE9FE
:104D70000F010E9A03910021009207F1010A04919C
:104D80004DE04FF000400097CDE9011006A90EA8B4
:104D9000FFF7CAFCDDE90F0203920E9B1199002276
:104DA000DDF80CA00093049211B9791C00EB010A04
:104DB000B7EB0A0004D4C0F1FF3007F1010A0490F8
:104DC000AAEB0700019044E0012F00DA012700213F
:104DD000112F01DD112000E03846CDE9000106A9C0
:104DE0000EA8FFF7A1FCDDE90F010E9A0391002147
:104DF00004910092BA4621070CD40399514500DA78
:104E00008A46BAF1010F05DD009AAAF10101515C51
:104E1000302908D0B84202DA10F1040F06DA012175
:104E2000CDE9011015E0AAF10101E9E7002805DC50
:104E3000049901440491AAEB000102E0411C514590
:104E400000DD8A460499401A401C01904FF0004052
:104E50000290200704D40198504501DBCDF804806E
:104E600000208DF84F0002980DF14F07B0F1004F70
:104E700025D02B200E9002984FF0020800280CDA63
:104E8000404202902D200E9007E00A210298FBF785
:104E90005DFC3031029007F8011DB8F10001A8F166
:104EA0000108F2DC02980028EFD1791E0E980870F4
:104EB000307800F0200040F0450007F8020D12A8FD
:104EC000C01B00F107081498007800B1012000EB26
:104ED0000A01019801EBE07105984144401A401E17
:104EE0000590E00306D45B462146179A059800F02A
:104EF0005DF805441498007818B15A461799904700
:104F00006D1CE00324D55B462146179A059800F0F6
:104F10004DF805441CE00498002807DBDDE9030197
:104F2000884203DD0098405C179901E01799302012
:104F30005A469047049805F10105401C04900198D9
:104F4000401E019004D12E205A46179990476D1C9F
:104F5000BAF10001AAF1010ADDDC05E017F8010B46
:104F60005A46179990476D1CB8F10001A8F1010845
:104F7000F4DC5B462146179A0598ABE62D0000004D
:104F80002B000000200000002DE9F0410446002520
:104F90001E461746880404D405E039462020B04751
:104FA0006D1C641EF9D52846BDE8F0812DE9F0415D
:104FB000044600251E469046C80301D5302700E070
:104FC0002027880404D505E041463846B0476D1CCB
:104FD000641EF9D52846BDE8F0814A68002A06D04B
:104FE0000A68531C0B6010704868401E4860704788
:104FF0000A68531C0B60107070470146002209B903
:1050000000207047002901DD084600E048420146C3
:1050100000E0521C012090408842FADD1046F0E783
:1050200070B504460D4600202071401EE0622946FE
:10503000204603F0A7F808B1032070BD94F82E12A3
:1050400094F82F0241EA00204AF65521884201D007
:105050000220F2E794F86900010694F8680041EA3A
:10506000004194F8670041EA002094F86610084374
:1050700020F07F400D49884201D10020DDE794F8FF
:105080008500010694F8840041EA004194F8830009
:1050900041EA002094F88210084320F07F40034941
:1050A000884201D10020C8E70120C6E746415400EC
:1050B000024600E0521C107810B110788842F9D1F5
:1050C000107870470246891E5069801E884201D8B8
:1050D000002070479378906A01FB0300F9E7000015
:1050E0002DE9F04780460C46A17EE07E41EA002093
:1050F00010B10020BDE8F087207800F03F00401E8E
:1051000000EB800101EBC0064FF00109002524E00F
:105110001A48405D205C1949495D2144497840EABC
:105120000127B9F1000F11D0FF2E0BD2384601F044
:1051300081FB82463146761C38F8110001F07AFB7B
:10514000824501D00020D5E7B94605E04FF6FF7053
:10515000874201D00020CDE76D1C0D2DD8D32078DB
:1051600000F0400038B1B9F1000F04D038F8160053
:1051700008B10020BEE70120BCE70000CA92000889
:105180002DE9F04704468946B9F1000F06D1E768DA
:1051900017B16069B84215D8012713E04946204687
:1051A00001F07EFE0646022E02D20120BDE8F08705
:1051B000701C08B93046F9E76069B04201D9304641
:1051C000F4E74F463D4600BF6D1C6069A84204D815
:1051D0000225BD4201D90020E8E72946204601F01A
:1051E0005FFE064606B909E0701C08B1012E01D128
:1051F0003046DBE7BD42E7D10020D7E700BF6FF0C4
:1052000070422946204603F0CCF98046B8F1000FE1
:1052100008D1B9F1000F05D02A464946204603F0CF
:10522000C0F98046B8F1000F0BD1E5602069401C41
:1052300078B12069401E2061607940F00100607102
:1052400007E0B8F1010F02D14FF0FF3000E001207C
:1052500005462846AAE700002DE9F34F83B08246B1
:105260000498D0F800B001E00BF1010B9BF80000AE
:105270002F28F9D09BF800005C28F5D0DAF81C90B4
:1052800000252E4600BF3046761C1BF80040202C1F
:1052900003DB2F2C01D05C2C00D11CE0FF2D03D3AD
:1052A000062005B0BDE8F08FE4B20121204601F0F0
:1052B0009BFA04460CB90620F3E7802C06DA214657
:1052C0006BA0FFF7F5FE08B10620EAE728466D1C43
:1052D00029F81040D7E700BF0BEB060104980160E6
:1052E000202C01DA042000E00020074608E0681EB8
:1052F00039F81040202C02D02E2C00D002E06D1E78
:10530000002DF4D100BF0DB90620CAE7002029F80E
:1053100015000B222021DAF8180002F029FF0026E0
:1053200000E0761C39F816002028FAD039F816006B
:105330002E28F6D00EB147F0030700E06D1E25B110
:10534000681E39F810002E28F8D14FF00008CDF86B
:1053500008800820019000BF3046761C39F81040C4
:1053600004B955E0202C03D02E2C04D1AE4202D03B
:1053700047F00307F0E7DDE90110884201D2AE42B1
:1053800016D101980B2802D147F0030740E0AE4246
:1053900001D047F00307AE4200D939E02E4608207D
:1053A00002900B2001904FEA88604FEA1068D3E723
:1053B000802C0BDB0021204601F016FA04461CB1BC
:1053C000A4F180002D490C5C47F0020700BF24B116
:1053D00021462BA0FFF76CFE18B15F2447F00307AE
:1053E0000FE0412C04DB5A2C02DC48F0020808E0F4
:1053F000612C06DB7A2C04DC48F00108A4F12000C3
:1054000084B2DAF818300298411C02911C54A3E7C8
:1054100000BFDAF818000078E52803D10520DAF893
:10542000181008700198082803D14FEA88604FEAE5
:10543000106808F00C000C2803D008F003000328C3
:1054400001D147F0020707F0020058B908F0030045
:10545000012801D147F0100708F00C00042801D101
:1054600047F00807DAF81800C772002019E70000B3
:10547000222A3A3C3E3F7C7F000000004A9200080E
:105480002B2C3B3D5B5D00002DE9F04104460E46B0
:105490000021204600F0CDF90546EDB9002700BFF8
:1054A0002169206802F06EFE054605B113E06069CF
:1054B0000078E52802D06069007820B9781C07469A
:1054C000B04201D107E000270121204600F07FF81B
:1054D0000546002DE4D000BF042D00D10725284645
:1054E000BDE8F0812DE9F04704460021204600F098
:1054F000A0F9074617B13846BDE8F0874FF0FF091D
:10550000CA464FF6FF70208400BF2169206802F070
:1055100039FE074607B157E065692E780EB90427B2
:1055200052E0E87A00F03F08E52E05D008F00800C8
:1055300040B1B8F10F0F05D04FF0FF094FF6FF70E3
:1055400020843AE0B8F10F0F1CD1E06978B306F07F
:10555000400030B195F80DA026F04006B146E08835
:1055600020844E450AD1687B504507D12946E06921
:10557000FFF7B6FD10B1A9F1010000E0FF2000F037
:10558000FF091AE0B9F1000F05D1284603F0BCF974
:10559000504500D118E0A069C07A00F0010038B988
:1055A0000B222846A16902F0C3FD08B90CE004E013
:1055B0004FF0FF094FF6FF7020840021204600F0D5
:1055C00006F80746002FA0D000BF384694E72DE923
:1055D000F04104468846E088461CB0B208B1206914
:1055E00010B90420BDE8F08121684889C11700EB9B
:1055F000D1614911B6FBF1F201FB1261002971D1B1
:105600002069401C2061E06828B920680089B04208
:1056100068D80420E6E721684889C11700EBD1610A
:105620004911B6FBF1F122689278521E114000290F
:1056300058D1E168206801F033FC0546012D01D8FE
:105640000220CFE7681C08B90120CBE72068406939
:10565000A84241D8B8F1000F01D10420C2E7E168A7
:105660002068FFF78DFD05460DB90720BAE7012D2B
:1056700001D10220B6E7681C08B90120B2E7206812
:1056800003F0B6F908B10120ACE721684A8901F1BD
:105690003000002102F06CFD29462068FFF712FD62
:1056A0002168C86200270EE0012021680871206887
:1056B00003F09EF908B1012094E72068C06A401CFD
:1056C0002168C8627F1C20688078B842ECD82068C6
:1056D000C06AC01B2168C862E56029462068FFF7E0
:1056E000F1FC2061E68021684889C11700EBD16197
:1056F0004911B6FBF1F201FB12612268303202EB74
:105700004111616100206DE72DE9FE4F0446D4F898
:105710001880D4F81C900C224146684602F01BFD0C
:1057200000BF9DF80B0000F0010020B3002088F8B6
:105730000B00E06101260CE033464A4669464046CC
:1057400001F054FB2046FFF7CDFE054605B102E00F
:10575000761C642EF0D300BF642E02D10720BDE872
:10576000FE8F042D01D02846F9E79DF80B0088F83C
:105770000B00C4F81C909DF80B0000F0020060B113
:10578000002600E0761C39F816000028FAD106F150
:1057900019000D21B0FBF1F700E001273946204642
:1057A000FFF772FE054645BB781E071E25D0E08830
:1057B000C11B204600F03DF80546F5B9A06903F08D
:1057C000A3F8824600BF2169206802F0DBFC054691
:1057D00005B111E0FAB253466169E06901F044FA9B
:1057E00001202168087100212046FFF7F0FE0546E0
:1057F00015B9781E071EE6D100BFC5B9216920681A
:1058000002F0C0FC054695B920220021606902F033
:10581000AFFC0B22D4E9050102F09DFCA069C07A1F
:1058200000F018006169087301202168087128469A
:1058300095E72DE9F04104460E46E680A568012D66
:1058400003D020684069A84202D80220BDE8F08158
:105850002DB920680078032801D12068456A45B930
:1058600020680089B04201D80220EFE72068476A2B
:1058700024E021684889C11700EBD16149112268F1
:10588000927801FB02F812E02946206801F008FB3B
:105890000546681C08B90120D8E7022D03D320680B
:1058A0004069A84201D80220D0E7A6EB0806464589
:1058B000EAD229462068FFF705FC0746E5600FB9E4
:1058C0000220C3E721684889C11700EBD161491163
:1058D000B6FBF1F13944216121684889C11700EB19
:1058E000D1614911B6FBF1F201FB1261226830323D
:1058F00002EB411161610020A8E770B50446012563
:1059000014B1012C09D107E0FEF77EF810B925F09B
:10591000010500E0012502E001E0012500BF00BF14
:10592000284670BD30B50346042013B1012B1CD1AD
:105930001AE0A9B101290BD0022902D0032910D104
:1059400003E04FF4007414800BE00124146008E0BD
:10595000084C646C074DAD6CB4FBF5F4146000E0CA
:1059600000BF00BF002002E001E0042000BF00BF34
:1059700030BD00002C1200202DE9F047ADF5007D70
:1059800006460C4615461F464FF0040A4FF0000825
:1059900016B1012E41D13FE004F0030000B34FF0F7
:1059A000000913E02A466D1C012369460020FFF719
:1059B000E3FF8146B9F1000F00D00BE04FF4007215
:1059C00069462046FAF71CFC04F50074381EA7F15E
:1059D0000107E7D100BF48460DF5007DBDE8F0871F
:1059E00069023B464FF400722046FEF7D5F9804627
:1059F000B8F1000F07D1FEF779FA804600BFFDF736
:105A0000F4FF0028FBD1B8F1000F02D04FF0040AD8
:105A100001E04FF0000A03E002E04FF0040A00BF8B
:105A200000BF5046D8E70146012011B1012904D139
:105A300002E020F0010002E001E0012000BF00BF11
:105A400070472DE9F047ADF5007D07460C46154639
:105A50001E464FF0040A4FF0000826B904200DF549
:105A6000007DBDE8F08717B1012F3ED13CE004F086
:105A70000300E8B14FF0000913E04FF40072214633
:105A80006846FAF7BDFB2A466D1C012369460020D3
:105A9000FFF7D7FF8146B9F1000F00D005E004F50C
:105AA0000074301EA6F10106E7D100BF4846D6E7D4
:105AB000690233464FF400722046FEF74FFA8046E3
:105AC000B8F1000F07D1FEF72BFA804600BFFDF7B3
:105AD0008CFF0028FBD1B8F1000F02D04FF0040A70
